{
  "address": "0xC498064677650C0E9d1dbfD9B73Ed553FB1cC1a0",
  "abi": [
    {
      "inputs": [
        {
          "internalType": "address",
          "name": "_stakableNFT",
          "type": "address"
        },
        {
          "internalType": "address",
          "name": "_rewardToken",
          "type": "address"
        }
      ],
      "stateMutability": "nonpayable",
      "type": "constructor"
    },
    {
      "inputs": [],
      "name": "EnforcedPause",
      "type": "error"
    },
    {
      "inputs": [],
      "name": "ExpectedPause",
      "type": "error"
    },
    {
      "inputs": [
        {
          "internalType": "address",
          "name": "owner",
          "type": "address"
        }
      ],
      "name": "OwnableInvalidOwner",
      "type": "error"
    },
    {
      "inputs": [
        {
          "internalType": "address",
          "name": "account",
          "type": "address"
        }
      ],
      "name": "OwnableUnauthorizedAccount",
      "type": "error"
    },
    {
      "inputs": [],
      "name": "ReentrancyGuardReentrantCall",
      "type": "error"
    },
    {
      "anonymous": false,
      "inputs": [
        {
          "indexed": false,
          "internalType": "uint256",
          "name": "oldReward",
          "type": "uint256"
        },
        {
          "indexed": false,
          "internalType": "uint256",
          "name": "newReward",
          "type": "uint256"
        }
      ],
      "name": "BaseRewardUpdated",
      "type": "event"
    },
    {
      "anonymous": false,
      "inputs": [
        {
          "indexed": true,
          "internalType": "address",
          "name": "previousOwner",
          "type": "address"
        },
        {
          "indexed": true,
          "internalType": "address",
          "name": "newOwner",
          "type": "address"
        }
      ],
      "name": "OwnershipTransferred",
      "type": "event"
    },
    {
      "anonymous": false,
      "inputs": [
        {
          "indexed": false,
          "internalType": "address",
          "name": "account",
          "type": "address"
        }
      ],
      "name": "Paused",
      "type": "event"
    },
    {
      "anonymous": false,
      "inputs": [
        {
          "indexed": true,
          "internalType": "address",
          "name": "user",
          "type": "address"
        },
        {
          "indexed": true,
          "internalType": "uint256",
          "name": "tokenId",
          "type": "uint256"
        },
        {
          "indexed": false,
          "internalType": "uint256",
          "name": "amount",
          "type": "uint256"
        }
      ],
      "name": "RewardClaimed",
      "type": "event"
    },
    {
      "anonymous": false,
      "inputs": [
        {
          "indexed": true,
          "internalType": "address",
          "name": "user",
          "type": "address"
        },
        {
          "indexed": true,
          "internalType": "uint256",
          "name": "tokenId",
          "type": "uint256"
        },
        {
          "indexed": false,
          "internalType": "uint256",
          "name": "timestamp",
          "type": "uint256"
        }
      ],
      "name": "Staked",
      "type": "event"
    },
    {
      "anonymous": false,
      "inputs": [
        {
          "indexed": false,
          "internalType": "address",
          "name": "account",
          "type": "address"
        }
      ],
      "name": "Unpaused",
      "type": "event"
    },
    {
      "anonymous": false,
      "inputs": [
        {
          "indexed": true,
          "internalType": "address",
          "name": "user",
          "type": "address"
        },
        {
          "indexed": true,
          "internalType": "uint256",
          "name": "tokenId",
          "type": "uint256"
        },
        {
          "indexed": false,
          "internalType": "uint256",
          "name": "timestamp",
          "type": "uint256"
        },
        {
          "indexed": false,
          "internalType": "uint256",
          "name": "reward",
          "type": "uint256"
        }
      ],
      "name": "Unstaked",
      "type": "event"
    },
    {
      "inputs": [],
      "name": "baseRewardPerSecond",
      "outputs": [
        {
          "internalType": "uint256",
          "name": "",
          "type": "uint256"
        }
      ],
      "stateMutability": "view",
      "type": "function"
    },
    {
      "inputs": [
        {
          "internalType": "uint256[]",
          "name": "tokenIds",
          "type": "uint256[]"
        }
      ],
      "name": "batchCalculatePendingReward",
      "outputs": [
        {
          "internalType": "uint256[]",
          "name": "rewards",
          "type": "uint256[]"
        }
      ],
      "stateMutability": "view",
      "type": "function"
    },
    {
      "inputs": [
        {
          "internalType": "uint256[]",
          "name": "tokenIds",
          "type": "uint256[]"
        }
      ],
      "name": "batchClaimReward",
      "outputs": [],
      "stateMutability": "nonpayable",
      "type": "function"
    },
    {
      "inputs": [
        {
          "internalType": "uint256[]",
          "name": "tokenIds",
          "type": "uint256[]"
        }
      ],
      "name": "batchStake",
      "outputs": [],
      "stateMutability": "nonpayable",
      "type": "function"
    },
    {
      "inputs": [
        {
          "internalType": "uint256[]",
          "name": "tokenIds",
          "type": "uint256[]"
        },
        {
          "internalType": "uint256",
          "name": "deadline",
          "type": "uint256"
        },
        {
          "internalType": "uint8[]",
          "name": "vs",
          "type": "uint8[]"
        },
        {
          "internalType": "bytes32[]",
          "name": "rs",
          "type": "bytes32[]"
        },
        {
          "internalType": "bytes32[]",
          "name": "ss",
          "type": "bytes32[]"
        }
      ],
      "name": "batchStakeWithPermit",
      "outputs": [],
      "stateMutability": "nonpayable",
      "type": "function"
    },
    {
      "inputs": [
        {
          "internalType": "uint256",
          "name": "tokenId",
          "type": "uint256"
        }
      ],
      "name": "calculatePendingReward",
      "outputs": [
        {
          "internalType": "uint256",
          "name": "",
          "type": "uint256"
        }
      ],
      "stateMutability": "view",
      "type": "function"
    },
    {
      "inputs": [
        {
          "internalType": "uint256",
          "name": "tokenId",
          "type": "uint256"
        }
      ],
      "name": "claimReward",
      "outputs": [],
      "stateMutability": "nonpayable",
      "type": "function"
    },
    {
      "inputs": [
        {
          "internalType": "uint256",
          "name": "tokenId",
          "type": "uint256"
        }
      ],
      "name": "getStakeInfo",
      "outputs": [
        {
          "components": [
            {
              "internalType": "address",
              "name": "owner",
              "type": "address"
            },
            {
              "internalType": "uint256",
              "name": "stakedAt",
              "type": "uint256"
            },
            {
              "internalType": "uint256",
              "name": "lastClaimTime",
              "type": "uint256"
            }
          ],
          "internalType": "struct NFTStakingPool.StakeInfo",
          "name": "",
          "type": "tuple"
        }
      ],
      "stateMutability": "view",
      "type": "function"
    },
    {
      "inputs": [
        {
          "internalType": "uint256",
          "name": "tokenId",
          "type": "uint256"
        }
      ],
      "name": "getStaker",
      "outputs": [
        {
          "internalType": "address",
          "name": "",
          "type": "address"
        }
      ],
      "stateMutability": "view",
      "type": "function"
    },
    {
      "inputs": [
        {
          "internalType": "uint256",
          "name": "tokenId",
          "type": "uint256"
        }
      ],
      "name": "isStaked",
      "outputs": [
        {
          "internalType": "bool",
          "name": "",
          "type": "bool"
        }
      ],
      "stateMutability": "view",
      "type": "function"
    },
    {
      "inputs": [],
      "name": "owner",
      "outputs": [
        {
          "internalType": "address",
          "name": "",
          "type": "address"
        }
      ],
      "stateMutability": "view",
      "type": "function"
    },
    {
      "inputs": [],
      "name": "pause",
      "outputs": [],
      "stateMutability": "nonpayable",
      "type": "function"
    },
    {
      "inputs": [],
      "name": "paused",
      "outputs": [
        {
          "internalType": "bool",
          "name": "",
          "type": "bool"
        }
      ],
      "stateMutability": "view",
      "type": "function"
    },
    {
      "inputs": [],
      "name": "renounceOwnership",
      "outputs": [],
      "stateMutability": "nonpayable",
      "type": "function"
    },
    {
      "inputs": [],
      "name": "rewardToken",
      "outputs": [
        {
          "internalType": "contract IRewardToken",
          "name": "",
          "type": "address"
        }
      ],
      "stateMutability": "view",
      "type": "function"
    },
    {
      "inputs": [
        {
          "internalType": "uint256",
          "name": "newReward",
          "type": "uint256"
        }
      ],
      "name": "setBaseReward",
      "outputs": [],
      "stateMutability": "nonpayable",
      "type": "function"
    },
    {
      "inputs": [],
      "name": "stakableNFT",
      "outputs": [
        {
          "internalType": "contract IStakableNFT",
          "name": "",
          "type": "address"
        }
      ],
      "stateMutability": "view",
      "type": "function"
    },
    {
      "inputs": [
        {
          "internalType": "uint256",
          "name": "tokenId",
          "type": "uint256"
        }
      ],
      "name": "stake",
      "outputs": [],
      "stateMutability": "nonpayable",
      "type": "function"
    },
    {
      "inputs": [
        {
          "internalType": "uint256",
          "name": "",
          "type": "uint256"
        }
      ],
      "name": "stakeInfo",
      "outputs": [
        {
          "internalType": "address",
          "name": "owner",
          "type": "address"
        },
        {
          "internalType": "uint256",
          "name": "stakedAt",
          "type": "uint256"
        },
        {
          "internalType": "uint256",
          "name": "lastClaimTime",
          "type": "uint256"
        }
      ],
      "stateMutability": "view",
      "type": "function"
    },
    {
      "inputs": [
        {
          "internalType": "uint256",
          "name": "tokenId",
          "type": "uint256"
        },
        {
          "internalType": "uint256",
          "name": "deadline",
          "type": "uint256"
        },
        {
          "internalType": "uint8",
          "name": "v",
          "type": "uint8"
        },
        {
          "internalType": "bytes32",
          "name": "r",
          "type": "bytes32"
        },
        {
          "internalType": "bytes32",
          "name": "s",
          "type": "bytes32"
        }
      ],
      "name": "stakeWithPermit",
      "outputs": [],
      "stateMutability": "nonpayable",
      "type": "function"
    },
    {
      "inputs": [
        {
          "internalType": "address",
          "name": "newOwner",
          "type": "address"
        }
      ],
      "name": "transferOwnership",
      "outputs": [],
      "stateMutability": "nonpayable",
      "type": "function"
    },
    {
      "inputs": [],
      "name": "unpause",
      "outputs": [],
      "stateMutability": "nonpayable",
      "type": "function"
    },
    {
      "inputs": [
        {
          "internalType": "uint256",
          "name": "tokenId",
          "type": "uint256"
        }
      ],
      "name": "unstake",
      "outputs": [],
      "stateMutability": "nonpayable",
      "type": "function"
    }
  ],
  "transactionHash": "0x54f5d1e1c1d01a1190014a0e7be72926081ed21a8bb2ae95fd1c0192d8fa0bf8",
  "args": [
    "0xFD39Cf65d3f8d2A920ED7E576b9022c820C19269",
    "0x4A42d30B419a86Ec3e1806C18665f9c4483F75D8"
  ],
  "numDeployments": 1,
  "solcInputHash": "212ac44f9c87fd3905153b7ded1a9ab9",
  "bytecode": "0x60c0346101cb57620016fa90601f38839003908101601f19168201906001600160401b038211838310176101cf57808391604095869485528339810103126101cb57610056602061004f836101e3565b92016101e3565b9033156101b4575f8054336001600160a01b03198216811783558551946001600160a01b0394909385939192918416907f8be0079c531659141344cd1fd0a4f28419497f9722a3daafe3b4186f6b6457e09080a360018055650a86cc92e3da6004551692831561017257501690811561012e5760805260a052516115029081620001f88239608051818181610236015281816103dd01528181610825015281816109b301528181610a3b01528181610c84015281816110af01526111d5015260a051818181610134015281816107030152610d450152f35b825162461bcd60e51b815260206004820152601b60248201527f496e76616c696420526577617264546f6b656e206164647265737300000000006044820152606490fd5b62461bcd60e51b815260206004820152601b60248201527f496e76616c6964205374616b61626c654e4654206164647265737300000000006044820152606490fd5b8251631e4fbdf760e01b81525f6004820152602490fd5b5f80fd5b634e487b7160e01b5f52604160045260245ffd5b51906001600160a01b03821682036101cb5756fe60406080815260049081361015610014575f80fd5b5f915f3560e01c9081630373a23a14610e4c5781630981348214610dd15781632e17de7814610c1a5781633f4ba83a14610bb05781634e53357214610b6a5781635c975abb14610b46578163715018a614610aed5781638456cb5914610a925781638da5cb5b14610a6a5781638e94dcdc14610a26578163a694fc3a1461096a57838263ae169a501461093257508163baa51f86146108fd578163c2127793146107c7578163c760da041461069b578163cdab753e146105a0578163d430e34a14610576578163d9a7c1f914610558578163dd31493314610328578163e3c998fe146102f557838263ecd9ba821461020157508163f2fde38b14610167575063f7c618c114610121575f80fd5b34610163578160031936011261016357517f00000000000000000000000000000000000000000000000000000000000000006001600160a01b03168152602090f35b5080fd5b919050346101fd5760203660031901126101fd576001600160a01b038235818116939192908490036101f95761019b611143565b83156101e35750505f54826bffffffffffffffffffffffff60a01b8216175f55167f8be0079c531659141344cd1fd0a4f28419497f9722a3daafe3b4186f6b6457e05f80a380f35b51631e4fbdf760e01b8152908101849052602490fd5b8480fd5b8280fd5b9150346101635760a03660031901126101635780359260443560ff811681036102f15761022c61116e565b610234611191565b7f00000000000000000000000000000000000000000000000000000000000000006001600160a01b031692833b156101f9578251637ac2ff7b60e01b81523091810191825260208201879052602435604083015260ff9092166060820152606435608082015260843560a08201529092849184919082908490829060c00103925af19081156102e857506102d4575b506102cd826111af565b6001805580f35b6102dd90610efd565b61016357815f6102c3565b513d84823e3d90fd5b8380fd5b9050346101fd5760203660031901126101fd5735825260036020908152918190205490516001600160a01b039091168152f35b9050346101fd5760a03660031901126101fd5767ffffffffffffffff9181358381116101f95761035b9036908401610e9c565b939091602435604435838111610554576103789036908701610e9c565b90606435858111610550576103909036908901610e9c565b97909560843590811161054c576103aa9036908301610e9c565b6103b261116e565b6103ba611191565b6103c58b1515610fc7565b848b1480610543575b8061053a575b156104ff5793987f00000000000000000000000000000000000000000000000000000000000000006001600160a01b031694908c5b8d8d8210610418576001805580f35b8c6104328f61042a8f86928391611001565b35928a611001565b359060ff821682036101fd5761044984868f611001565b359061045685888a611001565b35918b3b156101f9578d51637ac2ff7b60e01b815230818c019081526020810193909352604083018e905260ff9094166060830152608082015260a081019190915282908290819060c0010381838d5af180156104f557918f92918e926104d7575b50506104cb83600194936104d193611001565b356111af565b01610409565b9092506104e49150610efd565b6104f1578c8b8f5f6104b8565b8d80fd5b8b513d84823e3d90fd5b865162461bcd60e51b81526020818501526015602482015274082e4e4c2f240d8cadccee8d040dad2e6dac2e8c6d605b1b6044820152606490fd5b50808b146103d4565b50898b146103ce565b8a80fd5b8980fd5b8780fd5b9050346101fd57826003193601126101fd5760209250549051908152f35b82843461059d57602036600319011261059d575061059660209235611064565b9051908152f35b80fd5b83915034610163576020806003193601126101fd57813567ffffffffffffffff81116102f15782846105d6879336908401610e9c565b926105e084611025565b916105ed86519384610f11565b8483526105f985611025565b8388019590601f1901368737845b81811061064d575050505083519485948186019282875251809352850193925b82811061063657505050500390f35b835185528695509381019392810192600101610627565b6106676106618284869c99989a9b9c611001565b35611064565b875182101561068857600582901b8801870152949796959394600101610607565b634e487b7160e01b865260328552602486fd5b83833461016357602036600319011261016357823567ffffffffffffffff81116101fd576106cc9036908501610e9c565b6106d792919261116e565b6106e2811515610fc7565b839284915b80831061078957505050829382610701575b836001805580f35b7f00000000000000000000000000000000000000000000000000000000000000006001600160a01b031692833b156101f95782516340c10f1960e01b815233928101928352602083019190915292849184919082908490829060400103925af19081156102e85750610775575b80806106f9565b61077e90610efd565b61059d57808261076e565b9091936107a061079a868486611001565b3561142c565b81018091116107b4579360010191906106e7565b634e487b7160e01b865260118752602486fd5b919050346101fd5760209160206003193601126102f157803567ffffffffffffffff81116101f9576107fc9036908301610e9c565b92909361080761116e565b61080f611191565b61081a841515610fc7565b6001600160a01b03907f0000000000000000000000000000000000000000000000000000000000000000821690875b86811061087b57888888825b81811061086457836001805580f35b806108756104cb6001938587611001565b01610855565b61088681888a611001565b85516331a9108f60e11b81529035878201528281602481875afa9081156108f357600192916108c0918c916108c6575b5086163314610f8b565b01610849565b6108e69150853d87116108ec575b6108de8183610f11565b810190610f6c565b5f6108b6565b503d6108d4565b86513d8c823e3d90fd5b9050346101fd5760203660031901126101fd5735825260036020908152918190205490516001600160a01b0390911615158152f35b809184346109665760203660031901126109665761094e61116e565b610958823561142c565b918261070157836001805580f35b5050fd5b9050346101fd5760203660031901126101fd5780359061098861116e565b610990611191565b82516331a9108f60e11b81529081018290526001600160a01b03906020816024817f000000000000000000000000000000000000000000000000000000000000000086165afa938415610a1d5750926109f7916102cd9486926109fc575b50163314610f8b565b6111af565b610a1691925060203d6020116108ec576108de8183610f11565b905f6109ee565b513d86823e3d90fd5b505034610163578160031936011261016357517f00000000000000000000000000000000000000000000000000000000000000006001600160a01b03168152602090f35b505034610163578160031936011261016357905490516001600160a01b039091168152602090f35b50503461016357816003193601126101635760207f62e78cea01bee320cd4e420270b5ea74000d11b0c9f74754ebdbfc544b05a25891610ad0611143565b610ad8611191565b600160ff19600254161760025551338152a180f35b833461059d578060031936011261059d57610b06611143565b5f80546001600160a01b0319811682556001600160a01b03167f8be0079c531659141344cd1fd0a4f28419497f9722a3daafe3b4186f6b6457e08280a380f35b50503461016357816003193601126101635760209060ff6002541690519015158152f35b9050346101fd5760203660031901126101fd57606092829135815260036020522060018060a01b0381541691600260018301549201549181519384526020840152820152f35b9050346101fd57826003193601126101fd57610bca611143565b6002549060ff821615610c0c575060ff1916600255513381527f5db9ee0a495bf2e6ff9c91a7834c1ba4fdd244a5e8aa4e537bd38aeae4b073aa90602090a180f35b8251638dfc202b60e01b8152fd5b905034610dcd576020366003190112610dcd57803591610c3861116e565b825f5260036020528360018060a01b0392610c5984845f2054163314610f33565b610c6285611064565b93855f5260036020525f6002858220828155826001820155015584610d3f575b7f000000000000000000000000000000000000000000000000000000000000000016803b156101fd5783516323b872dd60e01b81523092810192835233602084015260408301879052918391839182908490829060600103925af18015610d3557610d21575b5050807f204fccf0d92ed8d48f204adb39b2e81e92bad0dedb93f5716ca9478cfb57de0091519242845260208401523392a36001805580f35b610d2a90610efd565b6102f157835f610ce8565b83513d84823e3d90fd5b809192507f000000000000000000000000000000000000000000000000000000000000000016803b15610dcd5783516340c10f1960e01b8152338482019081526020810187905290915f9183919082908490829060400103925af18015610dc357610dae575b50908591610c82565b610dba91929650610efd565b5f94905f610da5565b84513d5f823e3d90fd5b5f80fd5b8234610dcd576020366003190112610dcd576060915f828051610df381610ecd565b8281528260208201520152355f526003602052805f20908051610e1581610ecd565b60018060a01b0383541692838252826002600183015492602085019384520154920191825282519384525160208401525190820152f35b8234610dcd576020366003190112610dcd57817f8290e204bc397edeaced2935fa66c26008b9c7a12ff6e2085af5be25785c53929235610e8a611143565b808254925582519182526020820152a1005b9181601f84011215610dcd5782359167ffffffffffffffff8311610dcd576020808501948460051b010111610dcd57565b6060810190811067ffffffffffffffff821117610ee957604052565b634e487b7160e01b5f52604160045260245ffd5b67ffffffffffffffff8111610ee957604052565b90601f8019910116810190811067ffffffffffffffff821117610ee957604052565b15610f3a57565b60405162461bcd60e51b815260206004820152600a6024820152692737ba1039ba30b5b2b960b11b6044820152606490fd5b90816020910312610dcd57516001600160a01b0381168103610dcd5790565b15610f9257565b60405162461bcd60e51b815260206004820152600d60248201526c2737ba1027232a1037bbb732b960991b6044820152606490fd5b15610fce57565b60405162461bcd60e51b815260206004820152600b60248201526a456d70747920617272617960a81b6044820152606490fd5b91908110156110115760051b0190565b634e487b7160e01b5f52603260045260245ffd5b67ffffffffffffffff8111610ee95760051b60200190565b8181029291811591840414171561105057565b634e487b7160e01b5f52601160045260245ffd5b5f81815260036020526040902080546001600160a01b03919082161561113c576002015442039142831161105057602090602460405180948193635750212d60e01b835260048301527f0000000000000000000000000000000000000000000000000000000000000000165afa908115611131575f916110fd575b506110f9906110f4612710936004549061103d565b61103d565b0490565b90506020813d602011611129575b8161111860209383610f11565b81010312610dcd57516127106110df565b3d915061110b565b6040513d5f823e3d90fd5b5050505f90565b5f546001600160a01b0316330361115657565b60405163118cdaa760e01b8152336004820152602490fd5b60026001541461117f576002600155565b604051633ee5aeb560e01b8152600490fd5b60ff6002541661119d57565b60405163d93c066560e01b8152600490fd5b604080516331a9108f60e11b815260048082018490526001600160a01b039260209290917f00000000000000000000000000000000000000000000000000000000000000008516918481602481865afa908115610dc3575f9161140f575b508581169586156113dc57875f526003865280855f2054166113a8578451635750212d60e01b81528381018990528681602481885afa90811561139e575f91611371575b501561133757600285519161126583610ecd565b888352878301428152878401914283528b5f5260038a52885f209451166bffffffffffffffffffffffff60a01b85541617845551600184015551910155823b15610dcd5783516323b872dd60e01b81526001600160a01b0390911691810191825230602083015260408201879052915f9183919082908490829060600103925af1801561132d57907f1449c6dd7851abc30abf37f57715f492010519147cc2652fbc38202c18a6ee9093929161131e575b5051428152a3565b61132790610efd565b5f611316565b82513d5f823e3d90fd5b845162461bcd60e51b81528084018790526014602482015273139195081b9bdd081c995d99585b1959081e595d60621b6044820152606490fd5b90508681813d8311611397575b6113888183610f11565b81010312610dcd57515f611251565b503d61137e565b86513d5f823e3d90fd5b845162461bcd60e51b8152808401879052600e60248201526d105b1c9958591e481cdd185ad95960921b6044820152606490fd5b845162461bcd60e51b8152808401879052600d60248201526c24b73b30b634b2103a37b5b2b760991b6044820152606490fd5b6114269150853d87116108ec576108de8183610f11565b5f61120d565b90815f52600360205260405f209161144e60018060a01b038454163314610f33565b61145781611064565b928315611492576002429101556040518381527ff01da32686223933d8a18a391060918c7f11a3648639edd87ae013e2e273174360203392a3565b60405162461bcd60e51b81526020600482015260126024820152714e6f2072657761726420746f20636c61696d60701b6044820152606490fdfea26469706673582212206b0c94f7896b023d7ac1383a0aed32168e953341e0809acc19b9fd7c5830562964736f6c63430008180033",
  "devdoc": {
    "details": "- 用户质押 StakableNFT 可获得 RWRD 代币奖励 - 奖励根据质押时间和 NFT 稀有度计算 - 支持随时领取奖励和解除质押 安全机制： - ReentrancyGuard：防重入攻击 - Pausable：紧急暂停功能 - Checks-Effects-Interactions 模式 经济模型： - 基础排放：1 RWRD/天/NFT - 稀有度加成：Common 1x, Rare 1.5x, Epic 2x, Legendary 3x",
    "errors": {
      "EnforcedPause()": [
        {
          "details": "The operation failed because the contract is paused."
        }
      ],
      "ExpectedPause()": [
        {
          "details": "The operation failed because the contract is not paused."
        }
      ],
      "OwnableInvalidOwner(address)": [
        {
          "details": "The owner is not a valid owner account. (eg. `address(0)`)"
        }
      ],
      "OwnableUnauthorizedAccount(address)": [
        {
          "details": "The caller account is not authorized to perform an operation."
        }
      ],
      "ReentrancyGuardReentrantCall()": [
        {
          "details": "Unauthorized reentrant call."
        }
      ]
    },
    "events": {
      "BaseRewardUpdated(uint256,uint256)": {
        "params": {
          "newReward": "新的奖励速率",
          "oldReward": "旧的奖励速率"
        }
      },
      "Paused(address)": {
        "details": "Emitted when the pause is triggered by `account`."
      },
      "RewardClaimed(address,uint256,uint256)": {
        "params": {
          "amount": "领取的奖励数量",
          "tokenId": "NFT ID",
          "user": "领取者地址"
        }
      },
      "Staked(address,uint256,uint256)": {
        "params": {
          "timestamp": "质押时间戳",
          "tokenId": "NFT ID",
          "user": "质押者地址"
        }
      },
      "Unpaused(address)": {
        "details": "Emitted when the pause is lifted by `account`."
      },
      "Unstaked(address,uint256,uint256,uint256)": {
        "params": {
          "reward": "本次获得的奖励数量",
          "timestamp": "解押时间戳",
          "tokenId": "NFT ID",
          "user": "质押者地址"
        }
      }
    },
    "kind": "dev",
    "methods": {
      "batchCalculatePendingReward(uint256[])": {
        "params": {
          "tokenIds": "NFT ID 数组"
        },
        "returns": {
          "rewards": "奖励数组"
        }
      },
      "batchClaimReward(uint256[])": {
        "details": "- 所有 NFT 必须属于调用者 - 只铸造一次代币（累加所有奖励） - 更新所有 NFT 的最后领取时间 - 复用 _claimReward 内部函数，避免代码重复",
        "params": {
          "tokenIds": "NFT ID 数组"
        }
      },
      "batchStake(uint256[])": {
        "details": "- 所有 NFT 必须属于调用者 - 所有 NFT 必须未被质押 - 用户必须已 approve 本合约 - 合约未暂停 - 复用 _stake 内部函数，避免代码重复",
        "params": {
          "tokenIds": "NFT ID 数组"
        }
      },
      "batchStakeWithPermit(uint256[],uint256,uint8[],bytes32[],bytes32[])": {
        "details": "- 批量质押的 gasless 版本 - 每个 NFT 需要独立的签名 - 所有签名使用相同的 deadline",
        "params": {
          "deadline": "签名过期时间",
          "rs": "签名参数 r 数组",
          "ss": "签名参数 s 数组",
          "tokenIds": "NFT ID 数组",
          "vs": "签名参数 v 数组"
        }
      },
      "calculatePendingReward(uint256)": {
        "details": "- 公式：reward = timeStaked × BASE_REWARD_PER_SECOND × multiplier / 10000 - 未质押返回 0 - 未揭示的 NFT multiplier 为 0，奖励为 0",
        "params": {
          "tokenId": "NFT ID"
        },
        "returns": {
          "_0": "待领取奖励数量（wei 单位）"
        }
      },
      "claimReward(uint256)": {
        "details": "- 调用者必须是质押者 - 仅领取奖励，不解押 NFT - 更新最后领取时间 操作流程： 1. 验证质押者身份 2. 计算待领取奖励 3. 更新最后领取时间 4. 铸造奖励代币 5. 触发 RewardClaimed 事件",
        "params": {
          "tokenId": "NFT ID"
        }
      },
      "constructor": {
        "details": "部署后需要由 RewardToken 的 owner 授予本合约 MINTER_ROLE",
        "params": {
          "_rewardToken": "RewardToken 合约地址",
          "_stakableNFT": "StakableNFT 合约地址"
        }
      },
      "getStakeInfo(uint256)": {
        "params": {
          "tokenId": "NFT ID"
        },
        "returns": {
          "_0": "质押信息结构体"
        }
      },
      "getStaker(uint256)": {
        "params": {
          "tokenId": "NFT ID"
        },
        "returns": {
          "_0": "质押者地址（未质押返回 address(0)）"
        }
      },
      "isStaked(uint256)": {
        "params": {
          "tokenId": "NFT ID"
        },
        "returns": {
          "_0": "是否已质押"
        }
      },
      "owner()": {
        "details": "Returns the address of the current owner."
      },
      "pause()": {
        "details": "仅 owner 可调用，暂停后无法质押"
      },
      "paused()": {
        "details": "Returns true if the contract is paused, and false otherwise."
      },
      "renounceOwnership()": {
        "details": "Leaves the contract without owner. It will not be possible to call `onlyOwner` functions. Can only be called by the current owner. NOTE: Renouncing ownership will leave the contract without an owner, thereby disabling any functionality that is only available to the owner."
      },
      "setBaseReward(uint256)": {
        "details": "仅 owner (Timelock) 可调用",
        "params": {
          "newReward": "新的奖励速率"
        }
      },
      "stake(uint256)": {
        "details": "- 用户必须是 NFT 的所有者 - NFT 必须未被质押 - 用户必须已 approve 本合约 - 合约未暂停 操作流程： 1. 验证 NFT 所有权 2. 验证未被质押 3. 转移 NFT 到合约 4. 记录质押信息 5. 触发 Staked 事件",
        "params": {
          "tokenId": "NFT ID"
        }
      },
      "stakeWithPermit(uint256,uint256,uint8,bytes32,bytes32)": {
        "details": "- 用户离线签名 Permit，无需预先 approve - 合约自动调用 permit 完成授权 - 然后执行质押 - 用户只需一笔交易，且可以由他人代付 gas 使用流程： 1. 用户离线签名 Permit（无需 gas） 2. 用户或 Relayer 调用此函数（需要 gas） 3. 合约自动完成：permit → stake 前端示例： ```typescript // 用户离线签名（无 gas） const domain = {   name: 'Stakable NFT',   version: '1',   chainId: await signer.getChainId(),   verifyingContract: stakableNFT.address }; const types = {   Permit: [     { name: 'spender', type: 'address' },     { name: 'tokenId', type: 'uint256' },     { name: 'nonce', type: 'uint256' },     { name: 'deadline', type: 'uint256' }   ] }; const value = {   spender: stakingPool.address,   tokenId: tokenId,   nonce: await stakableNFT.nonces(userAddress),   deadline: deadline }; const signature = await signer._signTypedData(domain, types, value); const { v, r, s } = ethers.utils.splitSignature(signature); // 提交质押（可以由 Relayer 代付 gas） await stakingPool.stakeWithPermit(tokenId, deadline, v, r, s); ```",
        "params": {
          "deadline": "签名过期时间",
          "r": "签名参数 r",
          "s": "签名参数 s",
          "tokenId": "NFT ID",
          "v": "签名参数 v"
        }
      },
      "transferOwnership(address)": {
        "details": "Transfers ownership of the contract to a new account (`newOwner`). Can only be called by the current owner."
      },
      "unpause()": {
        "details": "仅 owner 可调用"
      },
      "unstake(uint256)": {
        "details": "- 调用者必须是质押者 - 自动计算并发放奖励 - NFT 归还用户 - 清除质押记录 操作流程： 1. 验证质押者身份 2. 计算待领取奖励 3. 清除质押记录 4. 发放奖励（如果有） 5. 归还 NFT 6. 触发 Unstaked 事件",
        "params": {
          "tokenId": "NFT ID"
        }
      }
    },
    "stateVariables": {
      "baseRewardPerSecond": {
        "details": "初始值：1000000000000000000 / 86400 ≈ 11574074074074"
      }
    },
    "title": "NFTStakingPool",
    "version": 1
  },
  "userdoc": {
    "events": {
      "BaseRewardUpdated(uint256,uint256)": {
        "notice": "基础奖励速率更新事件"
      },
      "RewardClaimed(address,uint256,uint256)": {
        "notice": "奖励领取事件"
      },
      "Staked(address,uint256,uint256)": {
        "notice": "NFT 质押事件"
      },
      "Unstaked(address,uint256,uint256,uint256)": {
        "notice": "NFT 解押事件"
      }
    },
    "kind": "user",
    "methods": {
      "baseRewardPerSecond()": {
        "notice": "基础奖励速率：1 RWRD/天 = 1e18 / 86400 wei/秒"
      },
      "batchCalculatePendingReward(uint256[])": {
        "notice": "批量查询待领取奖励"
      },
      "batchClaimReward(uint256[])": {
        "notice": "批量领取奖励"
      },
      "batchStake(uint256[])": {
        "notice": "批量质押 NFT"
      },
      "batchStakeWithPermit(uint256[],uint256,uint8[],bytes32[],bytes32[])": {
        "notice": "批量使用 Permit 质押 NFT (Gasless 批量质押)"
      },
      "calculatePendingReward(uint256)": {
        "notice": "计算待领取奖励"
      },
      "claimReward(uint256)": {
        "notice": "领取奖励"
      },
      "constructor": {
        "notice": "部署 NFTStakingPool 合约"
      },
      "getStakeInfo(uint256)": {
        "notice": "获取质押信息"
      },
      "getStaker(uint256)": {
        "notice": "获取质押者地址"
      },
      "isStaked(uint256)": {
        "notice": "检查 NFT 是否已质押"
      },
      "pause()": {
        "notice": "暂停合约"
      },
      "rewardToken()": {
        "notice": "RewardToken 合约实例"
      },
      "setBaseReward(uint256)": {
        "notice": "设置基础奖励速率 (DAO 可治理参数)"
      },
      "stakableNFT()": {
        "notice": "StakableNFT 合约实例"
      },
      "stake(uint256)": {
        "notice": "质押 NFT"
      },
      "stakeInfo(uint256)": {
        "notice": "质押信息映射 tokenId => StakeInfo"
      },
      "stakeWithPermit(uint256,uint256,uint8,bytes32,bytes32)": {
        "notice": "使用 Permit 质押 NFT (Gasless 质押)"
      },
      "unpause()": {
        "notice": "恢复合约"
      },
      "unstake(uint256)": {
        "notice": "解押 NFT"
      }
    },
    "notice": "NFT 质押池合约，管理质押、解押和奖励分发",
    "version": 1
  },
  "storageLayout": {
    "storage": [
      {
        "astId": 388,
        "contract": "contracts/NFTStakingPool.sol:NFTStakingPool",
        "label": "_owner",
        "offset": 0,
        "slot": "0",
        "type": "t_address"
      },
      {
        "astId": 9034,
        "contract": "contracts/NFTStakingPool.sol:NFTStakingPool",
        "label": "_status",
        "offset": 0,
        "slot": "1",
        "type": "t_uint256"
      },
      {
        "astId": 8924,
        "contract": "contracts/NFTStakingPool.sol:NFTStakingPool",
        "label": "_paused",
        "offset": 0,
        "slot": "2",
        "type": "t_bool"
      },
      {
        "astId": 17894,
        "contract": "contracts/NFTStakingPool.sol:NFTStakingPool",
        "label": "stakeInfo",
        "offset": 0,
        "slot": "3",
        "type": "t_mapping(t_uint256,t_struct(StakeInfo)17888_storage)"
      },
      {
        "astId": 17906,
        "contract": "contracts/NFTStakingPool.sol:NFTStakingPool",
        "label": "baseRewardPerSecond",
        "offset": 0,
        "slot": "4",
        "type": "t_uint256"
      }
    ],
    "types": {
      "t_address": {
        "encoding": "inplace",
        "label": "address",
        "numberOfBytes": "20"
      },
      "t_bool": {
        "encoding": "inplace",
        "label": "bool",
        "numberOfBytes": "1"
      },
      "t_mapping(t_uint256,t_struct(StakeInfo)17888_storage)": {
        "encoding": "mapping",
        "key": "t_uint256",
        "label": "mapping(uint256 => struct NFTStakingPool.StakeInfo)",
        "numberOfBytes": "32",
        "value": "t_struct(StakeInfo)17888_storage"
      },
      "t_struct(StakeInfo)17888_storage": {
        "encoding": "inplace",
        "label": "struct NFTStakingPool.StakeInfo",
        "members": [
          {
            "astId": 17883,
            "contract": "contracts/NFTStakingPool.sol:NFTStakingPool",
            "label": "owner",
            "offset": 0,
            "slot": "0",
            "type": "t_address"
          },
          {
            "astId": 17885,
            "contract": "contracts/NFTStakingPool.sol:NFTStakingPool",
            "label": "stakedAt",
            "offset": 0,
            "slot": "1",
            "type": "t_uint256"
          },
          {
            "astId": 17887,
            "contract": "contracts/NFTStakingPool.sol:NFTStakingPool",
            "label": "lastClaimTime",
            "offset": 0,
            "slot": "2",
            "type": "t_uint256"
          }
        ],
        "numberOfBytes": "96"
      },
      "t_uint256": {
        "encoding": "inplace",
        "label": "uint256",
        "numberOfBytes": "32"
      }
    }
  }
}