{
  "address": "0xFD39Cf65d3f8d2A920ED7E576b9022c820C19269",
  "abi": [
    {
      "inputs": [],
      "stateMutability": "nonpayable",
      "type": "constructor"
    },
    {
      "inputs": [],
      "name": "AccessControlBadConfirmation",
      "type": "error"
    },
    {
      "inputs": [
        {
          "internalType": "address",
          "name": "account",
          "type": "address"
        },
        {
          "internalType": "bytes32",
          "name": "neededRole",
          "type": "bytes32"
        }
      ],
      "name": "AccessControlUnauthorizedAccount",
      "type": "error"
    },
    {
      "inputs": [],
      "name": "ECDSAInvalidSignature",
      "type": "error"
    },
    {
      "inputs": [
        {
          "internalType": "uint256",
          "name": "length",
          "type": "uint256"
        }
      ],
      "name": "ECDSAInvalidSignatureLength",
      "type": "error"
    },
    {
      "inputs": [
        {
          "internalType": "bytes32",
          "name": "s",
          "type": "bytes32"
        }
      ],
      "name": "ECDSAInvalidSignatureS",
      "type": "error"
    },
    {
      "inputs": [
        {
          "internalType": "address",
          "name": "sender",
          "type": "address"
        },
        {
          "internalType": "uint256",
          "name": "tokenId",
          "type": "uint256"
        },
        {
          "internalType": "address",
          "name": "owner",
          "type": "address"
        }
      ],
      "name": "ERC721IncorrectOwner",
      "type": "error"
    },
    {
      "inputs": [
        {
          "internalType": "address",
          "name": "operator",
          "type": "address"
        },
        {
          "internalType": "uint256",
          "name": "tokenId",
          "type": "uint256"
        }
      ],
      "name": "ERC721InsufficientApproval",
      "type": "error"
    },
    {
      "inputs": [
        {
          "internalType": "address",
          "name": "approver",
          "type": "address"
        }
      ],
      "name": "ERC721InvalidApprover",
      "type": "error"
    },
    {
      "inputs": [
        {
          "internalType": "address",
          "name": "operator",
          "type": "address"
        }
      ],
      "name": "ERC721InvalidOperator",
      "type": "error"
    },
    {
      "inputs": [
        {
          "internalType": "address",
          "name": "owner",
          "type": "address"
        }
      ],
      "name": "ERC721InvalidOwner",
      "type": "error"
    },
    {
      "inputs": [
        {
          "internalType": "address",
          "name": "receiver",
          "type": "address"
        }
      ],
      "name": "ERC721InvalidReceiver",
      "type": "error"
    },
    {
      "inputs": [
        {
          "internalType": "address",
          "name": "sender",
          "type": "address"
        }
      ],
      "name": "ERC721InvalidSender",
      "type": "error"
    },
    {
      "inputs": [
        {
          "internalType": "uint256",
          "name": "tokenId",
          "type": "uint256"
        }
      ],
      "name": "ERC721NonexistentToken",
      "type": "error"
    },
    {
      "inputs": [],
      "name": "EnforcedPause",
      "type": "error"
    },
    {
      "inputs": [],
      "name": "ExpectedPause",
      "type": "error"
    },
    {
      "inputs": [
        {
          "internalType": "uint256",
          "name": "common",
          "type": "uint256"
        },
        {
          "internalType": "uint256",
          "name": "rare",
          "type": "uint256"
        },
        {
          "internalType": "uint256",
          "name": "epic",
          "type": "uint256"
        },
        {
          "internalType": "uint256",
          "name": "legendary",
          "type": "uint256"
        }
      ],
      "name": "InvalidRarityDistribution",
      "type": "error"
    },
    {
      "inputs": [],
      "name": "InvalidShortString",
      "type": "error"
    },
    {
      "inputs": [],
      "name": "NotRevealedYet",
      "type": "error"
    },
    {
      "inputs": [],
      "name": "ReentrancyGuardReentrantCall",
      "type": "error"
    },
    {
      "inputs": [
        {
          "internalType": "string",
          "name": "str",
          "type": "string"
        }
      ],
      "name": "StringTooLong",
      "type": "error"
    },
    {
      "anonymous": false,
      "inputs": [
        {
          "indexed": true,
          "internalType": "address",
          "name": "owner",
          "type": "address"
        },
        {
          "indexed": true,
          "internalType": "address",
          "name": "approved",
          "type": "address"
        },
        {
          "indexed": true,
          "internalType": "uint256",
          "name": "tokenId",
          "type": "uint256"
        }
      ],
      "name": "Approval",
      "type": "event"
    },
    {
      "anonymous": false,
      "inputs": [
        {
          "indexed": true,
          "internalType": "address",
          "name": "owner",
          "type": "address"
        },
        {
          "indexed": true,
          "internalType": "address",
          "name": "operator",
          "type": "address"
        },
        {
          "indexed": false,
          "internalType": "bool",
          "name": "approved",
          "type": "bool"
        }
      ],
      "name": "ApprovalForAll",
      "type": "event"
    },
    {
      "anonymous": false,
      "inputs": [],
      "name": "EIP712DomainChanged",
      "type": "event"
    },
    {
      "anonymous": false,
      "inputs": [
        {
          "indexed": true,
          "internalType": "address",
          "name": "to",
          "type": "address"
        },
        {
          "indexed": false,
          "internalType": "uint256",
          "name": "startTokenId",
          "type": "uint256"
        },
        {
          "indexed": false,
          "internalType": "uint256",
          "name": "quantity",
          "type": "uint256"
        }
      ],
      "name": "NFTMinted",
      "type": "event"
    },
    {
      "anonymous": false,
      "inputs": [
        {
          "indexed": false,
          "internalType": "address",
          "name": "account",
          "type": "address"
        }
      ],
      "name": "Paused",
      "type": "event"
    },
    {
      "anonymous": false,
      "inputs": [
        {
          "indexed": false,
          "internalType": "uint256",
          "name": "poolSize",
          "type": "uint256"
        }
      ],
      "name": "RarityPoolSet",
      "type": "event"
    },
    {
      "anonymous": false,
      "inputs": [
        {
          "indexed": false,
          "internalType": "uint256",
          "name": "offset",
          "type": "uint256"
        }
      ],
      "name": "RevealCompleted",
      "type": "event"
    },
    {
      "anonymous": false,
      "inputs": [
        {
          "indexed": false,
          "internalType": "uint256",
          "name": "requestId",
          "type": "uint256"
        }
      ],
      "name": "RevealRequested",
      "type": "event"
    },
    {
      "anonymous": false,
      "inputs": [
        {
          "indexed": true,
          "internalType": "enum StakableNFT.Rarity",
          "name": "rarity",
          "type": "uint8"
        },
        {
          "indexed": false,
          "internalType": "uint256",
          "name": "oldMultiplier",
          "type": "uint256"
        },
        {
          "indexed": false,
          "internalType": "uint256",
          "name": "newMultiplier",
          "type": "uint256"
        }
      ],
      "name": "RewardMultiplierUpdated",
      "type": "event"
    },
    {
      "anonymous": false,
      "inputs": [
        {
          "indexed": true,
          "internalType": "bytes32",
          "name": "role",
          "type": "bytes32"
        },
        {
          "indexed": true,
          "internalType": "bytes32",
          "name": "previousAdminRole",
          "type": "bytes32"
        },
        {
          "indexed": true,
          "internalType": "bytes32",
          "name": "newAdminRole",
          "type": "bytes32"
        }
      ],
      "name": "RoleAdminChanged",
      "type": "event"
    },
    {
      "anonymous": false,
      "inputs": [
        {
          "indexed": true,
          "internalType": "bytes32",
          "name": "role",
          "type": "bytes32"
        },
        {
          "indexed": true,
          "internalType": "address",
          "name": "account",
          "type": "address"
        },
        {
          "indexed": true,
          "internalType": "address",
          "name": "sender",
          "type": "address"
        }
      ],
      "name": "RoleGranted",
      "type": "event"
    },
    {
      "anonymous": false,
      "inputs": [
        {
          "indexed": true,
          "internalType": "bytes32",
          "name": "role",
          "type": "bytes32"
        },
        {
          "indexed": true,
          "internalType": "address",
          "name": "account",
          "type": "address"
        },
        {
          "indexed": true,
          "internalType": "address",
          "name": "sender",
          "type": "address"
        }
      ],
      "name": "RoleRevoked",
      "type": "event"
    },
    {
      "anonymous": false,
      "inputs": [
        {
          "indexed": true,
          "internalType": "address",
          "name": "from",
          "type": "address"
        },
        {
          "indexed": true,
          "internalType": "address",
          "name": "to",
          "type": "address"
        },
        {
          "indexed": true,
          "internalType": "uint256",
          "name": "tokenId",
          "type": "uint256"
        }
      ],
      "name": "Transfer",
      "type": "event"
    },
    {
      "anonymous": false,
      "inputs": [
        {
          "indexed": false,
          "internalType": "address",
          "name": "account",
          "type": "address"
        }
      ],
      "name": "Unpaused",
      "type": "event"
    },
    {
      "anonymous": false,
      "inputs": [
        {
          "indexed": true,
          "internalType": "address",
          "name": "recipient",
          "type": "address"
        },
        {
          "indexed": false,
          "internalType": "uint256",
          "name": "amount",
          "type": "uint256"
        }
      ],
      "name": "Withdrawn",
      "type": "event"
    },
    {
      "inputs": [],
      "name": "DEFAULT_ADMIN_ROLE",
      "outputs": [
        {
          "internalType": "bytes32",
          "name": "",
          "type": "bytes32"
        }
      ],
      "stateMutability": "view",
      "type": "function"
    },
    {
      "inputs": [],
      "name": "DOMAIN_SEPARATOR",
      "outputs": [
        {
          "internalType": "bytes32",
          "name": "",
          "type": "bytes32"
        }
      ],
      "stateMutability": "view",
      "type": "function"
    },
    {
      "inputs": [],
      "name": "MAX_MULTIPLIER",
      "outputs": [
        {
          "internalType": "uint256",
          "name": "",
          "type": "uint256"
        }
      ],
      "stateMutability": "view",
      "type": "function"
    },
    {
      "inputs": [],
      "name": "MAX_PER_ADDRESS",
      "outputs": [
        {
          "internalType": "uint256",
          "name": "",
          "type": "uint256"
        }
      ],
      "stateMutability": "view",
      "type": "function"
    },
    {
      "inputs": [],
      "name": "MAX_SUPPLY",
      "outputs": [
        {
          "internalType": "uint256",
          "name": "",
          "type": "uint256"
        }
      ],
      "stateMutability": "view",
      "type": "function"
    },
    {
      "inputs": [],
      "name": "MINT_PRICE",
      "outputs": [
        {
          "internalType": "uint256",
          "name": "",
          "type": "uint256"
        }
      ],
      "stateMutability": "view",
      "type": "function"
    },
    {
      "inputs": [],
      "name": "OPERATOR_ROLE",
      "outputs": [
        {
          "internalType": "bytes32",
          "name": "",
          "type": "bytes32"
        }
      ],
      "stateMutability": "view",
      "type": "function"
    },
    {
      "inputs": [],
      "name": "PAUSER_ROLE",
      "outputs": [
        {
          "internalType": "bytes32",
          "name": "",
          "type": "bytes32"
        }
      ],
      "stateMutability": "view",
      "type": "function"
    },
    {
      "inputs": [
        {
          "internalType": "address",
          "name": "to",
          "type": "address"
        },
        {
          "internalType": "uint256",
          "name": "tokenId",
          "type": "uint256"
        }
      ],
      "name": "approve",
      "outputs": [],
      "stateMutability": "nonpayable",
      "type": "function"
    },
    {
      "inputs": [
        {
          "internalType": "address",
          "name": "owner",
          "type": "address"
        }
      ],
      "name": "balanceOf",
      "outputs": [
        {
          "internalType": "uint256",
          "name": "",
          "type": "uint256"
        }
      ],
      "stateMutability": "view",
      "type": "function"
    },
    {
      "inputs": [
        {
          "internalType": "bytes32",
          "name": "role",
          "type": "bytes32"
        },
        {
          "internalType": "address",
          "name": "account",
          "type": "address"
        }
      ],
      "name": "checkRole",
      "outputs": [
        {
          "internalType": "bool",
          "name": "",
          "type": "bool"
        }
      ],
      "stateMutability": "view",
      "type": "function"
    },
    {
      "inputs": [],
      "name": "eip712Domain",
      "outputs": [
        {
          "internalType": "bytes1",
          "name": "fields",
          "type": "bytes1"
        },
        {
          "internalType": "string",
          "name": "name",
          "type": "string"
        },
        {
          "internalType": "string",
          "name": "version",
          "type": "string"
        },
        {
          "internalType": "uint256",
          "name": "chainId",
          "type": "uint256"
        },
        {
          "internalType": "address",
          "name": "verifyingContract",
          "type": "address"
        },
        {
          "internalType": "bytes32",
          "name": "salt",
          "type": "bytes32"
        },
        {
          "internalType": "uint256[]",
          "name": "extensions",
          "type": "uint256[]"
        }
      ],
      "stateMutability": "view",
      "type": "function"
    },
    {
      "inputs": [
        {
          "internalType": "uint256",
          "name": "tokenId",
          "type": "uint256"
        }
      ],
      "name": "getApproved",
      "outputs": [
        {
          "internalType": "address",
          "name": "",
          "type": "address"
        }
      ],
      "stateMutability": "view",
      "type": "function"
    },
    {
      "inputs": [
        {
          "internalType": "uint256",
          "name": "tokenId",
          "type": "uint256"
        }
      ],
      "name": "getRarity",
      "outputs": [
        {
          "internalType": "enum StakableNFT.Rarity",
          "name": "",
          "type": "uint8"
        }
      ],
      "stateMutability": "view",
      "type": "function"
    },
    {
      "inputs": [
        {
          "internalType": "bytes32",
          "name": "role",
          "type": "bytes32"
        }
      ],
      "name": "getRoleAdmin",
      "outputs": [
        {
          "internalType": "bytes32",
          "name": "",
          "type": "bytes32"
        }
      ],
      "stateMutability": "view",
      "type": "function"
    },
    {
      "inputs": [
        {
          "internalType": "uint256",
          "name": "tokenId",
          "type": "uint256"
        }
      ],
      "name": "getTokenRewardMultiplier",
      "outputs": [
        {
          "internalType": "uint256",
          "name": "",
          "type": "uint256"
        }
      ],
      "stateMutability": "view",
      "type": "function"
    },
    {
      "inputs": [
        {
          "internalType": "bytes32",
          "name": "role",
          "type": "bytes32"
        },
        {
          "internalType": "address",
          "name": "account",
          "type": "address"
        }
      ],
      "name": "grantRole",
      "outputs": [],
      "stateMutability": "nonpayable",
      "type": "function"
    },
    {
      "inputs": [
        {
          "internalType": "bytes32",
          "name": "role",
          "type": "bytes32"
        },
        {
          "internalType": "address",
          "name": "account",
          "type": "address"
        }
      ],
      "name": "grantRoleTo",
      "outputs": [],
      "stateMutability": "nonpayable",
      "type": "function"
    },
    {
      "inputs": [
        {
          "internalType": "bytes32",
          "name": "role",
          "type": "bytes32"
        },
        {
          "internalType": "address",
          "name": "account",
          "type": "address"
        }
      ],
      "name": "hasRole",
      "outputs": [
        {
          "internalType": "bool",
          "name": "",
          "type": "bool"
        }
      ],
      "stateMutability": "view",
      "type": "function"
    },
    {
      "inputs": [
        {
          "internalType": "address",
          "name": "owner",
          "type": "address"
        },
        {
          "internalType": "address",
          "name": "operator",
          "type": "address"
        }
      ],
      "name": "isApprovedForAll",
      "outputs": [
        {
          "internalType": "bool",
          "name": "",
          "type": "bool"
        }
      ],
      "stateMutability": "view",
      "type": "function"
    },
    {
      "inputs": [],
      "name": "isRevealed",
      "outputs": [
        {
          "internalType": "bool",
          "name": "",
          "type": "bool"
        }
      ],
      "stateMutability": "view",
      "type": "function"
    },
    {
      "inputs": [
        {
          "internalType": "uint256",
          "name": "quantity",
          "type": "uint256"
        }
      ],
      "name": "mint",
      "outputs": [],
      "stateMutability": "payable",
      "type": "function"
    },
    {
      "inputs": [
        {
          "internalType": "address",
          "name": "",
          "type": "address"
        }
      ],
      "name": "mintedCount",
      "outputs": [
        {
          "internalType": "uint256",
          "name": "",
          "type": "uint256"
        }
      ],
      "stateMutability": "view",
      "type": "function"
    },
    {
      "inputs": [],
      "name": "name",
      "outputs": [
        {
          "internalType": "string",
          "name": "",
          "type": "string"
        }
      ],
      "stateMutability": "view",
      "type": "function"
    },
    {
      "inputs": [
        {
          "internalType": "address",
          "name": "owner",
          "type": "address"
        }
      ],
      "name": "nonces",
      "outputs": [
        {
          "internalType": "uint256",
          "name": "",
          "type": "uint256"
        }
      ],
      "stateMutability": "view",
      "type": "function"
    },
    {
      "inputs": [
        {
          "internalType": "uint256",
          "name": "tokenId",
          "type": "uint256"
        }
      ],
      "name": "ownerOf",
      "outputs": [
        {
          "internalType": "address",
          "name": "",
          "type": "address"
        }
      ],
      "stateMutability": "view",
      "type": "function"
    },
    {
      "inputs": [],
      "name": "pause",
      "outputs": [],
      "stateMutability": "nonpayable",
      "type": "function"
    },
    {
      "inputs": [],
      "name": "paused",
      "outputs": [
        {
          "internalType": "bool",
          "name": "",
          "type": "bool"
        }
      ],
      "stateMutability": "view",
      "type": "function"
    },
    {
      "inputs": [
        {
          "internalType": "address",
          "name": "spender",
          "type": "address"
        },
        {
          "internalType": "uint256",
          "name": "tokenId",
          "type": "uint256"
        },
        {
          "internalType": "uint256",
          "name": "deadline",
          "type": "uint256"
        },
        {
          "internalType": "uint8",
          "name": "v",
          "type": "uint8"
        },
        {
          "internalType": "bytes32",
          "name": "r",
          "type": "bytes32"
        },
        {
          "internalType": "bytes32",
          "name": "s",
          "type": "bytes32"
        }
      ],
      "name": "permit",
      "outputs": [],
      "stateMutability": "nonpayable",
      "type": "function"
    },
    {
      "inputs": [
        {
          "internalType": "enum StakableNFT.Rarity",
          "name": "",
          "type": "uint8"
        }
      ],
      "name": "rarityImages",
      "outputs": [
        {
          "internalType": "string",
          "name": "",
          "type": "string"
        }
      ],
      "stateMutability": "view",
      "type": "function"
    },
    {
      "inputs": [
        {
          "internalType": "uint256",
          "name": "",
          "type": "uint256"
        }
      ],
      "name": "rarityPool",
      "outputs": [
        {
          "internalType": "enum StakableNFT.Rarity",
          "name": "",
          "type": "uint8"
        }
      ],
      "stateMutability": "view",
      "type": "function"
    },
    {
      "inputs": [],
      "name": "rarityPoolSet",
      "outputs": [
        {
          "internalType": "bool",
          "name": "",
          "type": "bool"
        }
      ],
      "stateMutability": "view",
      "type": "function"
    },
    {
      "inputs": [
        {
          "internalType": "bytes32",
          "name": "role",
          "type": "bytes32"
        },
        {
          "internalType": "address",
          "name": "callerConfirmation",
          "type": "address"
        }
      ],
      "name": "renounceRole",
      "outputs": [],
      "stateMutability": "nonpayable",
      "type": "function"
    },
    {
      "inputs": [],
      "name": "reveal",
      "outputs": [],
      "stateMutability": "nonpayable",
      "type": "function"
    },
    {
      "inputs": [],
      "name": "revealOffset",
      "outputs": [
        {
          "internalType": "uint256",
          "name": "",
          "type": "uint256"
        }
      ],
      "stateMutability": "view",
      "type": "function"
    },
    {
      "inputs": [
        {
          "internalType": "bytes32",
          "name": "role",
          "type": "bytes32"
        },
        {
          "internalType": "address",
          "name": "account",
          "type": "address"
        }
      ],
      "name": "revokeRole",
      "outputs": [],
      "stateMutability": "nonpayable",
      "type": "function"
    },
    {
      "inputs": [
        {
          "internalType": "bytes32",
          "name": "role",
          "type": "bytes32"
        },
        {
          "internalType": "address",
          "name": "account",
          "type": "address"
        }
      ],
      "name": "revokeRoleFrom",
      "outputs": [],
      "stateMutability": "nonpayable",
      "type": "function"
    },
    {
      "inputs": [
        {
          "internalType": "enum StakableNFT.Rarity",
          "name": "",
          "type": "uint8"
        }
      ],
      "name": "rewardMultiplier",
      "outputs": [
        {
          "internalType": "uint256",
          "name": "",
          "type": "uint256"
        }
      ],
      "stateMutability": "view",
      "type": "function"
    },
    {
      "inputs": [
        {
          "internalType": "address",
          "name": "from",
          "type": "address"
        },
        {
          "internalType": "address",
          "name": "to",
          "type": "address"
        },
        {
          "internalType": "uint256",
          "name": "tokenId",
          "type": "uint256"
        }
      ],
      "name": "safeTransferFrom",
      "outputs": [],
      "stateMutability": "nonpayable",
      "type": "function"
    },
    {
      "inputs": [
        {
          "internalType": "address",
          "name": "from",
          "type": "address"
        },
        {
          "internalType": "address",
          "name": "to",
          "type": "address"
        },
        {
          "internalType": "uint256",
          "name": "tokenId",
          "type": "uint256"
        },
        {
          "internalType": "bytes",
          "name": "data",
          "type": "bytes"
        }
      ],
      "name": "safeTransferFrom",
      "outputs": [],
      "stateMutability": "nonpayable",
      "type": "function"
    },
    {
      "inputs": [
        {
          "internalType": "address",
          "name": "operator",
          "type": "address"
        },
        {
          "internalType": "bool",
          "name": "approved",
          "type": "bool"
        }
      ],
      "name": "setApprovalForAll",
      "outputs": [],
      "stateMutability": "nonpayable",
      "type": "function"
    },
    {
      "inputs": [
        {
          "internalType": "enum StakableNFT.Rarity[]",
          "name": "shuffledRarities",
          "type": "uint8[]"
        }
      ],
      "name": "setRarityPool",
      "outputs": [],
      "stateMutability": "nonpayable",
      "type": "function"
    },
    {
      "inputs": [
        {
          "internalType": "enum StakableNFT.Rarity",
          "name": "rarity",
          "type": "uint8"
        },
        {
          "internalType": "uint256",
          "name": "multiplier",
          "type": "uint256"
        }
      ],
      "name": "setRewardMultiplier",
      "outputs": [],
      "stateMutability": "nonpayable",
      "type": "function"
    },
    {
      "inputs": [
        {
          "internalType": "uint256[4]",
          "name": "multipliers",
          "type": "uint256[4]"
        }
      ],
      "name": "setRewardMultipliers",
      "outputs": [],
      "stateMutability": "nonpayable",
      "type": "function"
    },
    {
      "inputs": [
        {
          "internalType": "bytes4",
          "name": "interfaceId",
          "type": "bytes4"
        }
      ],
      "name": "supportsInterface",
      "outputs": [
        {
          "internalType": "bool",
          "name": "",
          "type": "bool"
        }
      ],
      "stateMutability": "view",
      "type": "function"
    },
    {
      "inputs": [],
      "name": "symbol",
      "outputs": [
        {
          "internalType": "string",
          "name": "",
          "type": "string"
        }
      ],
      "stateMutability": "view",
      "type": "function"
    },
    {
      "inputs": [
        {
          "internalType": "uint256",
          "name": "",
          "type": "uint256"
        }
      ],
      "name": "tokenRarity",
      "outputs": [
        {
          "internalType": "enum StakableNFT.Rarity",
          "name": "",
          "type": "uint8"
        }
      ],
      "stateMutability": "view",
      "type": "function"
    },
    {
      "inputs": [
        {
          "internalType": "uint256",
          "name": "tokenId",
          "type": "uint256"
        }
      ],
      "name": "tokenURI",
      "outputs": [
        {
          "internalType": "string",
          "name": "",
          "type": "string"
        }
      ],
      "stateMutability": "view",
      "type": "function"
    },
    {
      "inputs": [],
      "name": "totalMinted",
      "outputs": [
        {
          "internalType": "uint256",
          "name": "",
          "type": "uint256"
        }
      ],
      "stateMutability": "view",
      "type": "function"
    },
    {
      "inputs": [
        {
          "internalType": "address",
          "name": "from",
          "type": "address"
        },
        {
          "internalType": "address",
          "name": "to",
          "type": "address"
        },
        {
          "internalType": "uint256",
          "name": "tokenId",
          "type": "uint256"
        }
      ],
      "name": "transferFrom",
      "outputs": [],
      "stateMutability": "nonpayable",
      "type": "function"
    },
    {
      "inputs": [],
      "name": "unpause",
      "outputs": [],
      "stateMutability": "nonpayable",
      "type": "function"
    },
    {
      "inputs": [],
      "name": "withdraw",
      "outputs": [],
      "stateMutability": "nonpayable",
      "type": "function"
    }
  ],
  "transactionHash": "0xb0e6081bfbe3079d623f36ae7554a89d9696e89f5c41371fbeda818c76f5a9f6",
  "args": [],
  "numDeployments": 1,
  "solcInputHash": "a665923660ca131d3ee0626aa2728809",
  "bytecode": "0x610160604081815234620005ea576200001882620005ee565b600c8252602091828101916b14dd185ad8589b194813919560a21b938484528151946200004586620005ee565b600191828752808701603160f81b81528451926200006384620005ee565b600c8452828401528451926200007984620005ee565b600484526314d3919560e21b8385015280516001600160401b0394908581116200048b5780620000aa5f546200060a565b93601f94858111620005ba575b50869085831160011462000556575f926200054a575b50505f19600383901b1c191690871b175f555b8051918583116200048b578291620000f988546200060a565b8281116200050f575b5085918311600114620004ab575f926200049f575b50505f19600383901b1c191690851b1784555b8360085562000139866200070d565b966101209788526200014b89620008a3565b96610140978852519020978860e05251902096610100978089524660a052855190838201927f8b73c3c69bb8fe3d512ecc4cf759cc79239f7b179b0ffacaa9a75d522b39400f84528783015260608201524660808201523060a082015260a0815260c0810193818510908511176200048b5760139386525190206080523060c05282600c555f8052600d8152835f20620001f1620001ea82546200060a565b826200065d565b606b81555f527f745745655969366b6d706835325563705154484670000000000000000000000083825f207f697066733a2f2f516d5937413157596b7a42786776595877447762593335626e81550155825f52600d8152835f206200025b620001ea82546200060a565b606b81555f527f4a625442377a4370796b476d756f576f5a54663970000000000000000000000083825f207f697066733a2f2f516d59627651766646724b62784c7772335a5834706967415a8155015560025f52600d8152835f20620002c6620001ea82546200060a565b606b81555f527f736a4c7a4153656b4e7274437957515a7157445736000000000000000000000083825f207f697066733a2f2f516d6467345463796950707578554a704454736e4a534766458155015560035f52600d8152835f2062000331620001ea82546200060a565b606b81555f527f355173696375765050755563624a4e6e65736a7466000000000000000000000083825f207f697066733a2f2f516d5a48646d625052373131756a4a576931554c3674653248815501556200038c336200068b565b505f7f97667070c54ef182b0f5858b034beac1b6f3089aa2d3188bb1e8929f4fa9b9298082526007835281858782200181815491557fbd79b86ffe0ab8e8776151514217cd7cacd52c909f66475c3af44e129f0b00ff92838380a47f65d7a28e3265b37a6474929f336521b332c1681b933f6cb9f3376673440d862a80835285878420019183835493558380a45f805252612710825f20555f52613a98815f205560025f52614e20815f205560035f52617530815f2055519161351e938462000a2c853960805184612a36015260a05184612af1015260c05184612a00015260e05184612a8501525183612aab015251826110e0015251816111090152f35b634e487b7160e01b5f52604160045260245ffd5b015190505f8062000117565b90879350601f19831691845f52865f20925f5b88828210620004f85750508411620004df575b505050811b0184556200012a565b01515f1960f88460031b161c191690555f8080620004d1565b8385015186558b97909501949384019301620004be565b6200053990895f52875f208480870160051c8201928a881062000540575b0160051c019062000645565b5f62000102565b925081926200052d565b015190505f80620000cd565b90899350601f198316915f8052885f20925f5b8a828210620005a357505084116200058a575b505050811b015f55620000e0565b01515f1960f88460031b161c191690555f80806200057c565b8385015186558d9790950194938401930162000569565b620005e3905f8052885f208780860160051c8201928b871062000540570160051c019062000645565b5f620000b7565b5f80fd5b604081019081106001600160401b038211176200048b57604052565b90600182811c921680156200063a575b60208310146200062657565b634e487b7160e01b5f52602260045260245ffd5b91607f16916200061a565b81811062000651575050565b5f815560010162000645565b90601f81116200066b575050565b62000689915f526002601f60205f20920160051c8201910162000645565b565b6001600160a01b03165f8181525f8051602062003f4a833981519152602052604090205460ff1662000708575f8181525f8051602062003f4a83398151915260205260408120805460ff191660011790553391907f2f8788117e7eff1d82e926ec794901d17c78024a50270940304540a733656f0d8180a4600190565b505f90565b805160209081811015620007a75750601f8251116200074857808251920151908083106200073a57501790565b825f19910360031b1b161790565b90604051809263305a27a960e01b82528060048301528251908160248401525f935b8285106200078d575050604492505f838284010152601f80199101168101030190fd5b84810182015186860160440152938101938593506200076a565b919291906001600160401b0382116200048b57620007c76009546200060a565b601f811162000878575b5080601f83116001146200081057508192935f9262000804575b50508160011b915f199060031b1c19161760095560ff90565b015190505f80620007eb565b90601f1983169460095f52825f20925f905b8782106200085f57505083600195961062000846575b505050811b0160095560ff90565b01515f1960f88460031b161c191690555f808062000838565b8060018596829496860151815501950193019062000822565b6200089c9060095f52601f835f20910160051c810190601f850160051c0162000645565b5f620007d1565b8051602090818110156200092f5750601f825111620008d057808251920151908083106200073a57501790565b90604051809263305a27a960e01b82528060048301528251908160248401525f935b82851062000915575050604492505f838284010152601f80199101168101030190fd5b8481018201518686016044015293810193859350620008f2565b919291906001600160401b0382116200048b576200094f600a546200060a565b601f811162000a00575b5080601f83116001146200099857508192935f926200098c575b50508160011b915f199060031b1c191617600a5560ff90565b015190505f8062000973565b90601f19831694600a5f52825f20925f905b878210620009e7575050836001959610620009ce575b505050811b01600a5560ff90565b01515f1960f88460031b161c191690555f8080620009c0565b80600185968294968601518155019501930190620009aa565b62000a2490600a5f52601f835f20910160051c810190601f850160051c0162000645565b5f6200095956fe6080806040526004361015610012575f80fd5b5f3560e01c90816301ffc9a714611b805750806306fdde0314611ad9578063081812fc14611a9d578063095ea7b314611a765780630aaef28514611a5b57806312d9a6ad1461107f5780631db212591461197a5780632097ac3b1461195d57806321b571ea1461191d57806323b872dd14611906578063248a9ca3146118d95780632f2ff15d146118a157806332cb6b0c146118865780633644e5151461186c57806336568abe146118255780633ccfd60b146117405780633f4ba83a146116d757806342842e0e146116aa578063487586971461163957806354214f69146116175780635750212d146115f157806359594e01146115b55780635c975abb146115935780635d6a618d146115765780636352211e1461154657806370a08231146114f05780637ac2ff7b1461131c5780637ddf2b991461124f5780637ecebe00146112175780638456cb59146111be57806384b0196e146110c857806391d148541461107f57806395d89b4114610fa1578063a0712d6814610b69578063a217fddf14610b4f578063a22cb46514610aae578063a2309ff814610a91578063a475b5dd146108a3578063a5e2361d1461084e578063afb0a36914610818578063b46e7256146107c8578063b88d4fde14610734578063c002d23d14610713578063c7c84a1e146106ee578063c87b56dd146106b7578063d547741f14610678578063e4777cf614610401578063e63ab1e9146103c7578063e985e9c514610375578063f3f69206146102ce578063f5b541a6146102945763fddcb5ea14610258575f80fd5b34610290576020366003190112610290576001600160a01b03610279611c4b565b165f52600e602052602060405f2054604051908152f35b5f80fd5b34610290575f3660031901126102905760206040517f97667070c54ef182b0f5858b034beac1b6f3089aa2d3188bb1e8929f4fa9b9298152f35b34610290576040366003190112610290576004356004811015610290577f0c00f0f4d06f9e77c95d4b3b69a75ecc24cbf4c00740281c13897ab0cc140ea46040602435610319612833565b610324811515611e23565b610333620186a0821115611e79565b61033c84611cc7565b835f526013602052815f20549061035285611cc7565b845f52601360205280835f205561036885611cc7565b82519182526020820152a2005b346102905760403660031901126102905761038e611c4b565b610396611c61565b9060018060a01b038091165f52600560205260405f2091165f52602052602060ff60405f2054166040519015158152f35b34610290575f3660031901126102905760206040517f65d7a28e3265b37a6474929f336521b332c1681b933f6cb9f3376673440d862a8152f35b3461029057602080600319360112610290576004359067ffffffffffffffff8083116102905736602384011215610290578260040135928184116102905760249060059036838760051b830101116102905761045b612833565b60ff9060ff60125460081c1661063457606487036105f9576040519460808601908111868210176105e65760405260803686375f5b878110610556575050505081519160328314801590610548575b8015610539575b801561052a575b6104f7577f993cefa3387087a2e62796ef50adde017475fa8ff7ed3b543c251ebda2060b4b848661010061ff00196012541617601255604051908152a1005b608493810151606060408301519201519260405194637624513f60e01b8652600486015284015260448301526064820152fd5b506005606082015114156104b8565b50600f604082015114156104b1565b50601e8482015114156104aa565b8481851b83010135906004821015610290576010918254680100000000000000008110156105d35761058f906001948582019055611c77565b61059883611cc7565b81549060031b9087808516831b921b19161790556105b581611cc7565b6105cc836105c3838b611e12565b51019189611e12565b5201610490565b87634e487b7160e01b5f5260416004525ffd5b84634e487b7160e01b5f5260416004525ffd5b60405162461bcd60e51b81526004810187905260148186015273092dcecc2d8d2c840c2e4e4c2f240d8cadccee8d60631b6044820152606490fd5b60405162461bcd60e51b8152600481018790526017818601527f52617269747920706f6f6c20616c7265616479207365740000000000000000006044820152606490fd5b34610290576040366003190112610290576106b5600435610697611c61565b90805f5260076020526106b0600160405f20015461295d565b612b17565b005b34610290576020366003190112610290576106ea6106d660043561215b565b604051918291602083526020830190611c26565b0390f35b34610290575f36600319011261029057602060ff60125460081c166040519015158152f35b34610290575f36600319011261029057602060405166038d7ea4c680008152f35b346102905760803660031901126102905761074d611c4b565b610755611c61565b906044356064359267ffffffffffffffff841161029057366023850112156102905783600401359261078684611de4565b936107946040519586611dc2565b8085523660248288010111610290576020815f9260246106b5990183890137860101526107c2838383611ebb565b33612bcc565b34610290576040366003190112610290576106b56004356107e7611c61565b90805f526007602052610800600160405f20015461295d565b805f5260076020526106b0600160405f20015461295d565b34610290576020366003190112610290576004355f52600f602052602060ff60405f2054166040519061084a81611cc7565b8152f35b34610290576040366003190112610290576106b560043561086d611c61565b90805f526007602052610886600160405f20015461295d565b805f52600760205261089e600160405f20015461295d565b61297f565b34610290575f366003190112610290576108bb6128ac565b60125460ff9060ff8116610a595760ff6108d89160081c1661210c565b600b805460649260648203610a065760405160209260208201904282524460408401523360601b606084015260748301526074825260a082019180831067ffffffffffffffff8411176109f257606492604052519020069360119460115560019485946001965b610980575b600160ff1960125416176012557f41584cbe7f0ef5c16b7b3ade9c1364da23dc94160373b93b0274e1fe5f1c40496020601154604051908152a1005b805487116109ed575f1987018781116109da578697856109ad866109a78b9588549061214e565b06611c77565b90549060031b1c16815f52600f885260405f20906109ca81611cc7565b815460ff1916179055019661093f565b82634e487b7160e01b5f5260045260245ffd5b610944565b634e487b7160e01b5f52604160045260245ffd5b60405162461bcd60e51b815260206004820152602560248201527f416c6c204e465473206d757374206265206d696e746564206265666f72652072604482015264195d99585b60da1b6064820152608490fd5b60405162461bcd60e51b815260206004820152601060248201526f105b1c9958591e481c995d99585b195960821b6044820152606490fd5b34610290575f366003190112610290576020600b54604051908152f35b3461029057604036600319011261029057610ac7611c4b565b60243590811515809203610290576001600160a01b0316908115610b3657335f52600560205260405f20825f5260205260405f2060ff1981541660ff83161790556040519081527f17307eab39ab6107e8899845ad3d59bd9653f200f220920489ca2b5937696c3160203392a3005b604051630b61174360e31b815260048101839052602490fd5b34610290575f3660031901126102905760206040515f8152f35b602036600319011261029057610b7d612b8b565b610b85612bae565b610b9660ff60125460081c1661210c565b60043515610f5c576064610bae600435600b5461214e565b11610f2257335f52600e6020526014610bcd60043560405f205461214e565b11610edd5766038d7ea4c68000600435810290810460043503610ec9573403610e8457600c8054903315155f5b6004358110610c6b5783335f52600e60205260405f20610c1d600435825461214e565b9055610c2d600435600b5461214e565b600b5560405190815260043560208201527f3a8a89b59a31c39a36febecb987e0657ab7b7c73b60ebacb44dcb9886c2d5c8a60403392a26001600855005b825460405190610c7a82611d52565b5f82523315610e6c57610c8b612bae565b805f52838160028060205260018060a01b0360405f205416908115159384610e37575b610e1f575b825f5260205260405f20336001600160601b0360a01b82541617905533907fddf252ad1be2c89b69c2b068fc378daa952ba7f163c4a11628f55a4df523b3ef5f80a4610e0757333b610d11575b505060019081845401845501610bfa565b610d4c916020916040519384928392630a85bd0160e11b84523360048501525f60248501526044840152608060648401526084830190611c26565b03815f335af15f9181610dc2575b50610d8c57610d67612041565b80519081610d8757604051633250574960e11b8152336004820152602490fd5b602001fd5b6001600160e01b03191663757a42ff60e11b01610daa578480610d00565b604051633250574960e11b8152336004820152602490fd5b9091506020813d602011610dff575b81610dde60209383611dc2565b8101031261029057516001600160e01b031981168103610290579086610d5a565b3d9150610dd1565b6040516339e3563760e11b81525f6004820152602490fd5b335f52600360205260405f2060018154019055610cb3565b505f83815260046020526040902080546001600160a01b0319169055815f5260036020528760405f205f198154019055610cae565b604051633250574960e11b81525f6004820152602490fd5b60405162461bcd60e51b815260206004820152601860248201527f496e636f7272656374207061796d656e7420616d6f756e7400000000000000006044820152606490fd5b634e487b7160e01b5f52601160045260245ffd5b60405162461bcd60e51b815260206004820152601760248201527f45786365656473206d61782070657220616464726573730000000000000000006044820152606490fd5b60405162461bcd60e51b815260206004820152601260248201527145786365656473206d617820737570706c7960701b6044820152606490fd5b60405162461bcd60e51b815260206004820152601f60248201527f5175616e74697479206d7573742062652067726561746572207468616e2030006044820152606490fd5b34610290575f366003190112610290576040515f60018260015492610fc584611d1a565b92838352602094856001821691825f1461105f575050600114611004575b50610ff092500383611dc2565b6106ea604051928284938452830190611c26565b84915060015f527fb10e2d527612073b26eecdfd717e6a320cf44b4afac2b0732d9fcbe2b7fa0cf6905f915b858310611047575050610ff0935082010185610fe3565b80548389018501528794508693909201918101611030565b60ff191685820152610ff095151560051b8501019250879150610fe39050565b3461029057604036600319011261029057611098611c61565b6004355f52600760205260405f209060018060a01b03165f52602052602060ff60405f2054166040519015158152f35b34610290575f366003190112610290576111616111047f0000000000000000000000000000000000000000000000000000000000000000612ebb565b61112d7f0000000000000000000000000000000000000000000000000000000000000000612fb9565b6040519061113a82611d52565b5f825261116f602091604051958695600f60f81b875260e0602088015260e0870190611c26565b908582036040870152611c26565b4660608501523060808501525f60a085015283810360c0850152602080845192838152019301915f5b8281106111a757505050500390f35b835185528695509381019392810192600101611198565b34610290575f366003190112610290576111d6612902565b6111de612bae565b600160ff1960065416176006557f62e78cea01bee320cd4e420270b5ea74000d11b0c9f74754ebdbfc544b05a2586020604051338152a1005b34610290576020366003190112610290576001600160a01b03611238611c4b565b165f526014602052602060405f2054604051908152f35b34610290576020806003193601126102905760043560048110156102905761127681611cc7565b5f52600d815260405f209060405191825f825461129281611d1a565b93848452600191866001821691825f146112fa5750506001146112be575b5050610ff092500383611dc2565b8592505f52815f20905f915b8583106112e2575050610ff0935082010185806112b0565b805483890185015287945086939092019181016112ca565b9250935050610ff094915060ff191682840152151560051b82010185806112b0565b346102905760c036600319011261029057611335611c4b565b60643560243560443560ff83168303610290578042116114ba57611358826127f9565b926001600160a01b0380851692868216908185146114755784936114119261140892865f52601460205260405f2054906040519160208301937f49ecf333e5b8c95c40fdafc95c1ad136e8914a8fb55e9dc8bb01eaa83a2df9ad855260408401528a6060840152608083015260a082015260a081526113d681611d6e565b5190206113e16129fd565b906040519161190160f01b83526002830152602282015260a4359160426084359220612da3565b90929192612e30565b160361143c575f52601460205260405f20928354935f198514610ec95760016106b595019055612ce6565b60405162461bcd60e51b8152602060048201526011602482015270496e76616c6964207369676e617475726560781b6044820152606490fd5b60405162461bcd60e51b815260206004820152601960248201527f417070726f76616c20746f2063757272656e74206f776e6572000000000000006044820152606490fd5b60405162461bcd60e51b815260206004820152600e60248201526d14195c9b5a5d08195e1c1a5c995960921b6044820152606490fd5b34610290576020366003190112610290576001600160a01b03611511611c4b565b16801561152e575f526003602052602060405f2054604051908152f35b6040516322718ad960e21b81525f6004820152602490fd5b346102905760203660031901126102905760206115646004356127f9565b6040516001600160a01b039091168152f35b34610290575f366003190112610290576020604051620186a08152f35b34610290575f36600319011261029057602060ff600654166040519015158152f35b34610290576020366003190112610290576004356004811015610290576115db81611cc7565b5f526013602052602060405f2054604051908152f35b3461029057602036600319011261029057602061160f6004356120b3565b604051908152f35b34610290575f36600319011261029057602060ff601254166040519015158152f35b34610290576020366003190112610290576004355f8181526002602052604090205461166f906001600160a01b03161515612070565b60ff6012541615611698575f52600f602052602060ff60405f2054166040519061084a81611cc7565b60405163065ce33160e21b8152600490fd5b34610290576106b56116bb36611ce5565b90604051926116c984611d52565b5f84526107c2838383611ebb565b34610290575f366003190112610290576116ef612902565b60065460ff81161561172e5760ff19166006557f5db9ee0a495bf2e6ff9c91a7834c1ba4fdd244a5e8aa4e537bd38aeae4b073aa6020604051338152a1005b604051638dfc202b60e01b8152600490fd5b34610290575f366003190112610290576117586128ac565b611760612b8b565b4780156117e7575f80808084335af1611777612041565b50156117b0576040519081527f7084f5476618d8e60b11ef0d7d3f06914655adb8793e28ff7f018d4c76d505d560203392a26001600855005b60405162461bcd60e51b815260206004820152600f60248201526e15da5d1a191c985dc819985a5b1959608a1b6044820152606490fd5b60405162461bcd60e51b81526020600482015260166024820152754e6f2062616c616e636520746f20776974686472617760501b6044820152606490fd5b346102905760403660031901126102905761183e611c61565b336001600160a01b0382160361185a576106b590600435612b17565b60405163334bd91960e11b8152600490fd5b34610290575f36600319011261029057602061160f6129fd565b34610290575f36600319011261029057602060405160648152f35b34610290576040366003190112610290576106b56004356118c0611c61565b90805f52600760205261089e600160405f20015461295d565b34610290576020366003190112610290576004355f5260076020526020600160405f200154604051908152f35b34610290576106b561191736611ce5565b91611ebb565b34610290576020366003190112610290576004356010548110156102905760ff611948602092611c77565b90549060031b1c166040519061084a81611cc7565b34610290575f366003190112610290576020601154604051908152f35b3461029057608036600319011261029057366084116102905761199b612833565b5f5b600481106119a757005b806119be6119b6600193611e00565b351515611e23565b6119d6620186a06119ce83611e00565b351115611e79565b6119df81611cc7565b6119e881611cc7565b805f52807f0c00f0f4d06f9e77c95d4b3b69a75ecc24cbf4c00740281c13897ab0cc140ea4604060136020818152825f205491611a2486611e00565b3590611a2f87611cc7565b865f528252835f2055611a4185611e00565b3590611a4c86611cc7565b8351928352820152a20161199d565b34610290575f36600319011261029057602060405160148152f35b34610290576040366003190112610290576106b5611a92611c4b565b339060243590612ce6565b3461029057602036600319011261029057600435611aba816127f9565b505f526004602052602060018060a01b0360405f205416604051908152f35b34610290575f366003190112610290576040515f80549082611afa83611d1a565b91828252602093600190856001821691825f1461105f575050600114611b275750610ff092500383611dc2565b5f808052859250907f290decd9548b62a8d60345a988386fc84ba6bc95484008f6362f93160ef3e5635b858310611b68575050610ff0935082010185610fe3565b80548389018501528794508693909201918101611b51565b34610290576020366003190112610290576004359063ffffffff60e01b821680920361029057602091637965db0b60e01b8114908115611bc2575b5015158152f35b6380ac58cd60e01b811491508115611bf4575b8115611be3575b5083611bbb565b6301ffc9a760e01b14905083611bdc565b635b5e139f60e01b81149150611bd5565b5f5b838110611c165750505f910152565b8181015183820152602001611c07565b90602091611c3f81518092818552858086019101611c05565b601f01601f1916010190565b600435906001600160a01b038216820361029057565b602435906001600160a01b038216820361029057565b90601054821015611cb35760105f52601f8260051c7f1b6847dc741a1b0cd08d278845f9d819d87b734759afb55fe2de5cb82a9ae67201921690565b634e487b7160e01b5f52603260045260245ffd5b60041115611cd157565b634e487b7160e01b5f52602160045260245ffd5b6060906003190112610290576001600160a01b0390600435828116810361029057916024359081168103610290579060443590565b90600182811c92168015611d48575b6020831014611d3457565b634e487b7160e01b5f52602260045260245ffd5b91607f1691611d29565b6020810190811067ffffffffffffffff8211176109f257604052565b60c0810190811067ffffffffffffffff8211176109f257604052565b6060810190811067ffffffffffffffff8211176109f257604052565b6040810190811067ffffffffffffffff8211176109f257604052565b90601f8019910116810190811067ffffffffffffffff8211176109f257604052565b67ffffffffffffffff81116109f257601f01601f191660200190565b6004811015611cb35760051b60040190565b906004811015611cb35760051b0190565b15611e2a57565b60405162461bcd60e51b815260206004820152602160248201527f4d756c7469706c696572206d7573742062652067726561746572207468616e206044820152600360fc1b6064820152608490fd5b15611e8057565b60405162461bcd60e51b815260206004820152601360248201527209aead8e8d2e0d8d2cae440e8dede40d0d2ced606b1b6044820152606490fd5b6001600160a01b039182169290918315610e6c57611ed7612bae565b815f52602092600284528260409583875f2054169533151580611faf575b5060029087611f7e575b825f5260038152885f2060018154019055835f5252865f20816001600160601b0360a01b825416179055857fddf252ad1be2c89b69c2b068fc378daa952ba7f163c4a11628f55a4df523b3ef5f80a41692838303611f5d5750505050565b6064945051926364283d7b60e01b8452600484015260248301526044820152fd5b5f84815260046020526040812080546001600160a01b03191690558881526003825289902080545f19019055611eff565b9192509080612000575b15611fc7579084915f611ef5565b868587611fe4576024915190637e27328960e01b82526004820152fd5b604491519063177e802f60e01b82523360048301526024820152fd5b503386148015612025575b80611fb95750845f52600481523384885f20541614611fb9565b50855f5260058152865f20335f52815260ff875f20541661200b565b3d1561206b573d9061205282611de4565b916120606040519384611dc2565b82523d5f602084013e565b606090565b1561207757565b60405162461bcd60e51b8152602060048201526014602482015273151bdad95b88191bd95cc81b9bdd08195e1a5cdd60621b6044820152606490fd5b5f818152600260205260409020546120d5906001600160a01b03161515612070565b60ff6012541615612107575f52600f60205260ff60405f2054166120f881611cc7565b5f52601360205260405f205490565b505f90565b1561211357565b60405162461bcd60e51b815260206004820152601360248201527214985c9a5d1e481c1bdbdb081b9bdd081cd95d606a1b6044820152606490fd5b91908201809211610ec957565b805f52602060028152604061217c60018060a01b03825f2054161515612070565b60ff601254161561260157825f52600f825260ff815f20541661219e816131ea565b906121a881611cc7565b805f52601384526121bc835f2054956130a8565b6121c5866132d9565b916121cf81611cc7565b5f52600d8552835f20926121eb6121e5886132d9565b976130a8565b96855194607b60f81b93848988015276226e616d65223a20225374616b61626c65204e4654202360481b602188015261222d815180928b60388b019101611c05565b86019061088b60f21b958660388401527f226465736372697074696f6e223a202241207374616b61626c65204e46542077603a84015263034ba34160e51b605a84015284518a86019361228482605e830187611c05565b016d0103930b934ba3c971022b0b937160951b605e8201526122af825180938d606c85019101611c05565b01907f2072657761726473207768656e207374616b696e6721222c0000000000000000606c830152691134b6b0b3b2911d101160b11b6084830152608e915f9282546122fa81611d1a565b936001918083169081156125c757509d9e999a9b9c9d60011461258b575b50505050509686612588999661253f9683966124e19660c1966125789f9c9d603d9e81526e2261747472696275746573223a205b60881b60028201528560118201527f2274726169745f74797065223a2022526172697479222c00000000000000000060128201526123a569113b30b63ab2911d101160b11b948560298401525180936033840190611c05565b01601160f91b92836033830152611f4b60f21b968760348401528660368401527f2274726169745f74797065223a2022526577617264204d756c7469706c6965726037840152605783015260598201526124098d8351938491606385019101611c05565b019060638201528360648201528260668201527f2274726169745f74797065223a20224d756c7469706c6965722056616c7565226067820152600b60fa1b6087820152680113b30b63ab2911d160bd1b6088820152612471825180938d609185019101611c05565b01916091830152609382015276089d1c985a5d17dd1e5c19488e880894dd185d1d5cc88b604a1b609482015272113b30b63ab2911d10112932bb32b0b632b21160691b60ab820152607d60f81b8060be830152605d60f81b60bf83015260c08201520360a1810184520182611dc2565b8251906124ed82611d8a565b8382527f4142434445464748494a4b4c4d4e4f505152535455565758595a616263646566858301527f6768696a6b6c6d6e6f707172737475767778797a303132333435363738392b2f84830152613398565b905194827f646174613a6170706c69636174696f6e2f6a736f6e3b6261736536342c000000879485015282519283918686019101611c05565b810103601d810184520182611dc2565b90565b9091929394505f528c5f205f905b8582106125b4575050505001608e01868686866124e1612318565b8054858301850152908e01908201612599565b60ff1916608e808701919091529e9f9d9e9c9d9b9c9a9b9a86151590960290940190940194508a93508992508891508790506124e1612318565b61258891603d9161253f612617612578966130a8565b6124e160f0845161262781611d8a565b60358152868101907f697066733a2f2f516d6432537a62755848516e63356a634c3763326f6854704e825274734b6355324e4a5677635072326247375331634b6b60581b878201528651948592607b60f81b91828b86015276226e616d65223a20225374616b61626c65204e4654202360481b60218601526126b2815180928d603889019101611c05565b61088b60f21b60389186019182018190527f226465736372697074696f6e223a202241206d7973746572696f757320626c69603a8301527f6e6420626f78204e46542077616974696e6720746f2062652072657665616c65605a8301527f642e205374616b6520746f206561726e2072657761726473206261736564206f607a8301526a1b881c985c9a5d1e48488b60aa1b609a830152691134b6b0b3b2911d101160b11b60a583015293519161276f90839060af840190611c05565b019160af8301526e2261747472696275746573223a205b60881b60b183015260c082015276089d1c985a5d17dd1e5c19488e880894dd185d1d5cc88b604a1b60c182015274113b30b63ab2911d10112ab73932bb32b0b632b21160591b60d8820152607d60f81b8060ed830152605d60f81b60ee83015260ef8201520360d0810184520182611dc2565b5f818152600260205260409020546001600160a01b031690811561281b575090565b60249060405190637e27328960e01b82526004820152fd5b335f9081527fe9a9c6cbfdf42264e5c800e9306c2b4fcd52c141cc05eb331485c6f538e26aa160205260409020547f97667070c54ef182b0f5858b034beac1b6f3089aa2d3188bb1e8929f4fa9b9299060ff161561288e5750565b6044906040519063e2517d3f60e01b82523360048301526024820152fd5b335f9081527f6d5257204ebe7d88fd91ae87941cb2dd9d8062b64ae5a2bd2d28ec40b9fbf6df602052604090205460ff16156128e457565b60405163e2517d3f60e01b81523360048201525f6024820152604490fd5b335f9081527f270c7cc4331b1445974c76712d9bb2afa8846ba0435cde7d1460f79fd91c04bd60205260409020547f65d7a28e3265b37a6474929f336521b332c1681b933f6cb9f3376673440d862a9060ff161561288e5750565b805f52600760205260405f20335f5260205260ff60405f2054161561288e5750565b90815f52600760205260405f209060018060a01b031690815f5260205260ff60405f205416155f146129f757815f52600760205260405f20815f5260205260405f20600160ff1982541617905533917f2f8788117e7eff1d82e926ec794901d17c78024a50270940304540a733656f0d5f80a4600190565b50505f90565b307f00000000000000000000000000000000000000000000000000000000000000006001600160a01b03161480612aee575b15612a58577f000000000000000000000000000000000000000000000000000000000000000090565b60405160208101907f8b73c3c69bb8fe3d512ecc4cf759cc79239f7b179b0ffacaa9a75d522b39400f82527f000000000000000000000000000000000000000000000000000000000000000060408201527f000000000000000000000000000000000000000000000000000000000000000060608201524660808201523060a082015260a08152612ae881611d6e565b51902090565b507f00000000000000000000000000000000000000000000000000000000000000004614612a2f565b90815f52600760205260405f209060018060a01b031690815f5260205260ff60405f2054165f146129f757815f52600760205260405f20815f5260205260405f2060ff19815416905533917ff6391f5c32d9c69d2a47ea670b442974b53935d1edc7fd64eb21e047a839171b5f80a4600190565b600260085414612b9c576002600855565b604051633ee5aeb560e01b8152600490fd5b60ff60065416612bba57565b60405163d93c066560e01b8152600490fd5b9291803b612bdc575b5050505050565b604051630a85bd0160e11b8082526001600160a01b03958616600483015292851660248201526044810193909352608060648401529092169260209082908190612c2a906084830190611c26565b03815f875af15f9181612ca1575b50612c6f5782612c46612041565b8051919082612c6857604051633250574960e11b815260048101839052602490fd5b6020915001fd5b6001600160e01b03191603612c8957505f80808080612bd5565b60249060405190633250574960e11b82526004820152fd5b9091506020813d602011612cde575b81612cbd60209383611dc2565b8101031261029057516001600160e01b03198116810361029057905f612c38565b3d9150612cb0565b612cef826127f9565b6001600160a01b0393909190841680151580612d97575b80612d74575b612d5c575083169282918491167f8c5be1e5ebec7d5bd14f71427d1e84f3dd0314c0f7b2291e5b200ac8c7c3b9255f80a45f52600460205260405f20906001600160601b0360a01b825416179055565b6024906040519063a9fbf51f60e01b82526004820152fd5b508483165f52600560205260405f20815f5260205260ff60405f20541615612d0c565b50808584161415612d06565b91907f7fffffffffffffffffffffffffffffff5d576e7357a4501ddfe92f46681b20a08411612e25579160209360809260ff5f9560405194855216868401526040830152606082015282805260015afa15612e1a575f516001600160a01b03811615612e1057905f905f90565b505f906001905f90565b6040513d5f823e3d90fd5b5050505f9160039190565b612e3981611cc7565b80612e42575050565b612e4b81611cc7565b60018103612e655760405163f645eedf60e01b8152600490fd5b612e6e81611cc7565b60028103612e8f5760405163fce698f760e01b815260048101839052602490fd5b80612e9b600392611cc7565b14612ea35750565b602490604051906335e2f38360e21b82526004820152fd5b60ff8114612ef95760ff811690601f8211612ee75760405191612edd83611da6565b8252602082015290565b604051632cd44ac360e21b8152600490fd5b50604051600954815f612f0b83611d1a565b80835292602090600190818116908115612f955750600114612f36575b505061258892500382611dc2565b91509260095f527f6e1540171b6c0c960b71a7020d9f60077f6af931a8bbf590da0223dacf75c7af935f925b828410612f7d57506125889450505081016020015f80612f28565b85548785018301529485019486945092810192612f62565b9150506020925061258894915060ff191682840152151560051b8201015f80612f28565b60ff8114612fdb5760ff811690601f8211612ee75760405191612edd83611da6565b50604051600a54815f612fed83611d1a565b80835292602090600190818116908115612f95575060011461301757505061258892500382611dc2565b915092600a5f527fc65a7bb8d6351c1cf70c95a316cc6a92839c986682d98bc35f958f4883f9d2a8935f925b82841061305e57506125889450505081016020015f80612f28565b85548785018301529485019486945092810192613043565b9061308082611de4565b61308d6040519182611dc2565b828152809261309e601f1991611de4565b0190602036910137565b805f917a184f03e93ff9f4daa797ed6e38ed64bf6a1f010000000000000000808210156131dc575b506d04ee2d6d415b85acef8100000000808310156131cd575b50662386f26fc10000808310156131be575b506305f5e100808310156131af575b50612710808310156131a0575b506064821015613190575b600a80921015613186575b60019081602161313f60018701613076565b95860101905b613151575b5050505090565b5f19019083906f181899199a1a9b1b9c1cb0b131b232b360811b8282061a83530491821561318157919082613145565b61314a565b916001019161312d565b9190606460029104910191613122565b6004919392049101915f613117565b6008919392049101915f61310a565b6010919392049101915f6130fb565b6020919392049101915f6130e9565b60409350810491505f6130d0565b6131f381611cc7565b80156132b65761320281611cc7565b600181146132955761321381611cc7565b600281146132745780613227600392611cc7565b1461324f5760405161323881611da6565b60078152662ab735b737bbb760c91b602082015290565b60405161325b81611da6565b60098152684c6567656e6461727960b81b602082015290565b5060405161328181611da6565b60048152634570696360e01b602082015290565b506040516132a281611da6565b60048152635261726560e01b602082015290565b506040516132c381611da6565b600681526521b7b6b6b7b760d11b602082015290565b60646127108083049206049081155f1461332e576132f791506130a8565b612588602160405183613314829551809260208086019101611c05565b8101600f60fb1b6020820152036001810184520182611dc2565b602261334561333f612588936130a8565b93613497565b92604051938161335f869351809260208087019101611c05565b8201601760f91b602082015261337f825180936020602185019101611c05565b01600f60fb1b6021820152036002810184520182611dc2565b9190918051156134825780519260029160028501809511610ec9576003948590046001600160fe1b0381168103610ec9576133d89060029694961b613076565b9260208401928291835184019760208901928351945f85525b8a81106134355750505050600393949596505251068060011461342357600214613419575090565b603d905f19015390565b50603d90815f19820153600119015390565b836004919b989b019a8b51600190603f9082828260121c16870101518453828282600c1c16870101518385015382828260061c1687010151878501531684010151858201530196996133f1565b50905060405161349181611d52565b5f815290565b600a81106134a857612588906130a8565b6134b1906130a8565b61258860216040518093600360fc1b60208301526134d88151809260208686019101611c05565b8101036001810184520182611dc256fea2646970667358221220c4b29aeeefd60989d7013970f96bf8d4e9f21dd63fa98c866b15a8d08b4fe22364736f6c634300081800336d5257204ebe7d88fd91ae87941cb2dd9d8062b64ae5a2bd2d28ec40b9fbf6df",
  "devdoc": {
    "errors": {
      "AccessControlBadConfirmation()": [
        {
          "details": "The caller of a function is not the expected one. NOTE: Don't confuse with {AccessControlUnauthorizedAccount}."
        }
      ],
      "AccessControlUnauthorizedAccount(address,bytes32)": [
        {
          "details": "The `account` is missing a role."
        }
      ],
      "ECDSAInvalidSignature()": [
        {
          "details": "The signature derives the `address(0)`."
        }
      ],
      "ECDSAInvalidSignatureLength(uint256)": [
        {
          "details": "The signature has an invalid length."
        }
      ],
      "ECDSAInvalidSignatureS(bytes32)": [
        {
          "details": "The signature has an S value that is in the upper half order."
        }
      ],
      "ERC721IncorrectOwner(address,uint256,address)": [
        {
          "details": "Indicates an error related to the ownership over a particular token. Used in transfers.",
          "params": {
            "owner": "Address of the current owner of a token.",
            "sender": "Address whose tokens are being transferred.",
            "tokenId": "Identifier number of a token."
          }
        }
      ],
      "ERC721InsufficientApproval(address,uint256)": [
        {
          "details": "Indicates a failure with the `operator`’s approval. Used in transfers.",
          "params": {
            "operator": "Address that may be allowed to operate on tokens without being their owner.",
            "tokenId": "Identifier number of a token."
          }
        }
      ],
      "ERC721InvalidApprover(address)": [
        {
          "details": "Indicates a failure with the `approver` of a token to be approved. Used in approvals.",
          "params": {
            "approver": "Address initiating an approval operation."
          }
        }
      ],
      "ERC721InvalidOperator(address)": [
        {
          "details": "Indicates a failure with the `operator` to be approved. Used in approvals.",
          "params": {
            "operator": "Address that may be allowed to operate on tokens without being their owner."
          }
        }
      ],
      "ERC721InvalidOwner(address)": [
        {
          "details": "Indicates that an address can't be an owner. For example, `address(0)` is a forbidden owner in ERC-20. Used in balance queries.",
          "params": {
            "owner": "Address of the current owner of a token."
          }
        }
      ],
      "ERC721InvalidReceiver(address)": [
        {
          "details": "Indicates a failure with the token `receiver`. Used in transfers.",
          "params": {
            "receiver": "Address to which tokens are being transferred."
          }
        }
      ],
      "ERC721InvalidSender(address)": [
        {
          "details": "Indicates a failure with the token `sender`. Used in transfers.",
          "params": {
            "sender": "Address whose tokens are being transferred."
          }
        }
      ],
      "ERC721NonexistentToken(uint256)": [
        {
          "details": "Indicates a `tokenId` whose `owner` is the zero address.",
          "params": {
            "tokenId": "Identifier number of a token."
          }
        }
      ],
      "EnforcedPause()": [
        {
          "details": "The operation failed because the contract is paused."
        }
      ],
      "ExpectedPause()": [
        {
          "details": "The operation failed because the contract is not paused."
        }
      ],
      "ReentrancyGuardReentrantCall()": [
        {
          "details": "Unauthorized reentrant call."
        }
      ]
    },
    "events": {
      "Approval(address,address,uint256)": {
        "details": "Emitted when `owner` enables `approved` to manage the `tokenId` token."
      },
      "ApprovalForAll(address,address,bool)": {
        "details": "Emitted when `owner` enables or disables (`approved`) `operator` to manage all of its assets."
      },
      "EIP712DomainChanged()": {
        "details": "MAY be emitted to signal that the domain could have changed."
      },
      "Paused(address)": {
        "details": "Emitted when the pause is triggered by `account`."
      },
      "RoleAdminChanged(bytes32,bytes32,bytes32)": {
        "details": "Emitted when `newAdminRole` is set as ``role``'s admin role, replacing `previousAdminRole` `DEFAULT_ADMIN_ROLE` is the starting admin for all roles, despite {RoleAdminChanged} not being emitted to signal this."
      },
      "RoleGranted(bytes32,address,address)": {
        "details": "Emitted when `account` is granted `role`. `sender` is the account that originated the contract call. This account bears the admin role (for the granted role). Expected in cases where the role was granted using the internal {AccessControl-_grantRole}."
      },
      "RoleRevoked(bytes32,address,address)": {
        "details": "Emitted when `account` is revoked `role`. `sender` is the account that originated the contract call:   - if using `revokeRole`, it is the admin role bearer   - if using `renounceRole`, it is the role bearer (i.e. `account`)"
      },
      "Transfer(address,address,uint256)": {
        "details": "Emitted when `tokenId` token is transferred from `from` to `to`."
      },
      "Unpaused(address)": {
        "details": "Emitted when the pause is lifted by `account`."
      }
    },
    "kind": "dev",
    "methods": {
      "DOMAIN_SEPARATOR()": {
        "returns": {
          "_0": "域分隔符"
        }
      },
      "approve(address,uint256)": {
        "details": "Gives permission to `to` to transfer `tokenId` token to another account. The approval is cleared when the token is transferred. Only a single account can be approved at a time, so approving the zero address clears previous approvals. Requirements: - The caller must own the token or be an approved operator. - `tokenId` must exist. Emits an {Approval} event."
      },
      "balanceOf(address)": {
        "details": "Returns the number of tokens in ``owner``'s account."
      },
      "eip712Domain()": {
        "details": "returns the fields and values that describe the domain separator used by this contract for EIP-712 signature."
      },
      "getApproved(uint256)": {
        "details": "Returns the account approved for `tokenId` token. Requirements: - `tokenId` must exist."
      },
      "getRarity(uint256)": {
        "details": "未揭示前调用会 revert",
        "params": {
          "tokenId": "NFT ID"
        },
        "returns": {
          "_0": "稀有度枚举值"
        }
      },
      "getRoleAdmin(bytes32)": {
        "details": "Returns the admin role that controls `role`. See {grantRole} and {revokeRole}. To change a role's admin, use {_setRoleAdmin}."
      },
      "getTokenRewardMultiplier(uint256)": {
        "details": "未揭示前返回 0",
        "params": {
          "tokenId": "NFT ID"
        },
        "returns": {
          "_0": "奖励倍率 (基数 10000)"
        }
      },
      "grantRole(bytes32,address)": {
        "details": "Grants `role` to `account`. If `account` had not been already granted `role`, emits a {RoleGranted} event. Requirements: - the caller must have ``role``'s admin role. May emit a {RoleGranted} event."
      },
      "hasRole(bytes32,address)": {
        "details": "Returns `true` if `account` has been granted `role`."
      },
      "isApprovedForAll(address,address)": {
        "details": "Returns if the `operator` is allowed to manage all of the assets of `owner`. See {setApprovalForAll}"
      },
      "mint(uint256)": {
        "details": "支付金额必须匹配，遵守供应量和每地址限制",
        "params": {
          "quantity": "铸造数量"
        }
      },
      "name()": {
        "details": "Returns the token collection name."
      },
      "nonces(address)": {
        "params": {
          "owner": "账户地址"
        },
        "returns": {
          "_0": "当前 nonce"
        }
      },
      "ownerOf(uint256)": {
        "details": "Returns the owner of the `tokenId` token. Requirements: - `tokenId` must exist."
      },
      "paused()": {
        "details": "Returns true if the contract is paused, and false otherwise."
      },
      "permit(address,uint256,uint256,uint8,bytes32,bytes32)": {
        "details": "- 用户离线签名授权信息 - 任何人可以提交签名完成授权（用户无需支付 gas） - 签名必须在 deadline 之前有效 - 每个签名只能使用一次（通过 nonce 防止重放攻击） 使用示例（前端）： ```typescript const signature = await signer._signTypedData(domain, types, value); const { v, r, s } = ethers.utils.splitSignature(signature); await stakingPool.stakeWithPermit(tokenId, deadline, v, r, s); ```",
        "params": {
          "deadline": "签名过期时间",
          "r": "签名参数 r",
          "s": "签名参数 s",
          "spender": "被授权者地址",
          "tokenId": "NFT ID",
          "v": "签名参数 v"
        }
      },
      "renounceRole(bytes32,address)": {
        "details": "Revokes `role` from the calling account. Roles are often managed via {grantRole} and {revokeRole}: this function's purpose is to provide a mechanism for accounts to lose their privileges if they are compromised (such as when a trusted device is misplaced). If the calling account had been revoked `role`, emits a {RoleRevoked} event. Requirements: - the caller must be `callerConfirmation`. May emit a {RoleRevoked} event."
      },
      "reveal()": {
        "details": "只能由管理员调用，且只能揭示一次必须等待所有 NFT 铸造完成后才能揭示一次性为所有已铸造的 NFT 分配稀有度并写入 mapping临时使用 blockhash 作为随机源，生产环境应使用 Chainlink VRF"
      },
      "revokeRole(bytes32,address)": {
        "details": "Revokes `role` from `account`. If `account` had been granted `role`, emits a {RoleRevoked} event. Requirements: - the caller must have ``role``'s admin role. May emit a {RoleRevoked} event."
      },
      "safeTransferFrom(address,address,uint256)": {
        "details": "Safely transfers `tokenId` token from `from` to `to`, checking first that contract recipients are aware of the ERC-721 protocol to prevent tokens from being forever locked. Requirements: - `from` cannot be the zero address. - `to` cannot be the zero address. - `tokenId` token must exist and be owned by `from`. - If the caller is not `from`, it must have been allowed to move this token by either {approve} or   {setApprovalForAll}. - If `to` refers to a smart contract, it must implement {IERC721Receiver-onERC721Received}, which is called upon   a safe transfer. Emits a {Transfer} event."
      },
      "safeTransferFrom(address,address,uint256,bytes)": {
        "details": "Safely transfers `tokenId` token from `from` to `to`. Requirements: - `from` cannot be the zero address. - `to` cannot be the zero address. - `tokenId` token must exist and be owned by `from`. - If the caller is not `from`, it must be approved to move this token by either {approve} or {setApprovalForAll}. - If `to` refers to a smart contract, it must implement {IERC721Receiver-onERC721Received}, which is called upon   a safe transfer. Emits a {Transfer} event."
      },
      "setApprovalForAll(address,bool)": {
        "details": "Approve or remove `operator` as an operator for the caller. Operators can call {transferFrom} or {safeTransferFrom} for any token owned by the caller. Requirements: - The `operator` cannot be the address zero. Emits an {ApprovalForAll} event."
      },
      "setRarityPool(uint8[])": {
        "details": "只能由操作员调用，且只能设置一次数组长度必须等于 MAX_SUPPLY，且必须包含正确数量的各稀有度",
        "params": {
          "shuffledRarities": "洗牌后的稀有度数组"
        }
      },
      "setRewardMultiplier(uint8,uint256)": {
        "details": "只能由操作员调用",
        "params": {
          "multiplier": "奖励倍率 (基数 10000，例如 10000 = 1x, 20000 = 2x)",
          "rarity": "稀有度"
        }
      },
      "setRewardMultipliers(uint256[4])": {
        "details": "只能由操作员调用",
        "params": {
          "multipliers": "奖励倍率数组 [Common, Rare, Epic, Legendary]"
        }
      },
      "symbol()": {
        "details": "Returns the token collection symbol."
      },
      "tokenURI(uint256)": {
        "details": "未揭示时返回盲盒 metadata，揭示后返回完整 metadata",
        "params": {
          "tokenId": "NFT ID"
        }
      },
      "transferFrom(address,address,uint256)": {
        "details": "Transfers `tokenId` token from `from` to `to`. WARNING: Note that the caller is responsible to confirm that the recipient is capable of receiving ERC-721 or else they may be permanently lost. Usage of {safeTransferFrom} prevents loss, though the caller must understand this adds an external call which potentially creates a reentrancy vulnerability. Requirements: - `from` cannot be the zero address. - `to` cannot be the zero address. - `tokenId` token must be owned by `from`. - If the caller is not `from`, it must be approved to move this token by either {approve} or {setApprovalForAll}. Emits a {Transfer} event."
      }
    },
    "version": 1
  },
  "userdoc": {
    "kind": "user",
    "methods": {
      "DOMAIN_SEPARATOR()": {
        "notice": "获取 EIP-712 域分隔符"
      },
      "getRarity(uint256)": {
        "notice": "获取 NFT 的稀有度"
      },
      "getTokenRewardMultiplier(uint256)": {
        "notice": "获取指定 tokenId 的奖励倍率"
      },
      "mint(uint256)": {
        "notice": "批量铸造 NFT"
      },
      "nonces(address)": {
        "notice": "获取账户的当前 nonce"
      },
      "permit(address,uint256,uint256,uint8,bytes32,bytes32)": {
        "notice": "ERC721 Permit 函数 - 支持 gasless approval"
      },
      "reveal()": {
        "notice": "揭示所有 NFT 的稀有度"
      },
      "setRarityPool(uint8[])": {
        "notice": "设置稀有度池（链下洗牌后传入）"
      },
      "setRewardMultiplier(uint8,uint256)": {
        "notice": "设置指定稀有度的奖励倍率"
      },
      "setRewardMultipliers(uint256[4])": {
        "notice": "批量设置所有稀有度的奖励倍率"
      },
      "tokenURI(uint256)": {
        "notice": "返回 tokenURI (完整的 JSON metadata)"
      }
    },
    "version": 1
  },
  "storageLayout": {
    "storage": [
      {
        "astId": 574,
        "contract": "contracts/StakableNFT.sol:StakableNFT",
        "label": "_name",
        "offset": 0,
        "slot": "0",
        "type": "t_string_storage"
      },
      {
        "astId": 576,
        "contract": "contracts/StakableNFT.sol:StakableNFT",
        "label": "_symbol",
        "offset": 0,
        "slot": "1",
        "type": "t_string_storage"
      },
      {
        "astId": 580,
        "contract": "contracts/StakableNFT.sol:StakableNFT",
        "label": "_owners",
        "offset": 0,
        "slot": "2",
        "type": "t_mapping(t_uint256,t_address)"
      },
      {
        "astId": 584,
        "contract": "contracts/StakableNFT.sol:StakableNFT",
        "label": "_balances",
        "offset": 0,
        "slot": "3",
        "type": "t_mapping(t_address,t_uint256)"
      },
      {
        "astId": 588,
        "contract": "contracts/StakableNFT.sol:StakableNFT",
        "label": "_tokenApprovals",
        "offset": 0,
        "slot": "4",
        "type": "t_mapping(t_uint256,t_address)"
      },
      {
        "astId": 594,
        "contract": "contracts/StakableNFT.sol:StakableNFT",
        "label": "_operatorApprovals",
        "offset": 0,
        "slot": "5",
        "type": "t_mapping(t_address,t_mapping(t_address,t_bool))"
      },
      {
        "astId": 1959,
        "contract": "contracts/StakableNFT.sol:StakableNFT",
        "label": "_paused",
        "offset": 0,
        "slot": "6",
        "type": "t_bool"
      },
      {
        "astId": 27,
        "contract": "contracts/StakableNFT.sol:StakableNFT",
        "label": "_roles",
        "offset": 0,
        "slot": "7",
        "type": "t_mapping(t_bytes32,t_struct(RoleData)22_storage)"
      },
      {
        "astId": 2069,
        "contract": "contracts/StakableNFT.sol:StakableNFT",
        "label": "_status",
        "offset": 0,
        "slot": "8",
        "type": "t_uint256"
      },
      {
        "astId": 4255,
        "contract": "contracts/StakableNFT.sol:StakableNFT",
        "label": "_nameFallback",
        "offset": 0,
        "slot": "9",
        "type": "t_string_storage"
      },
      {
        "astId": 4257,
        "contract": "contracts/StakableNFT.sol:StakableNFT",
        "label": "_versionFallback",
        "offset": 0,
        "slot": "10",
        "type": "t_string_storage"
      },
      {
        "astId": 8161,
        "contract": "contracts/StakableNFT.sol:StakableNFT",
        "label": "totalMinted",
        "offset": 0,
        "slot": "11",
        "type": "t_uint256"
      },
      {
        "astId": 8164,
        "contract": "contracts/StakableNFT.sol:StakableNFT",
        "label": "_nextTokenId",
        "offset": 0,
        "slot": "12",
        "type": "t_uint256"
      },
      {
        "astId": 8169,
        "contract": "contracts/StakableNFT.sol:StakableNFT",
        "label": "rarityImages",
        "offset": 0,
        "slot": "13",
        "type": "t_mapping(t_enum(Rarity)8135,t_string_storage)"
      },
      {
        "astId": 8173,
        "contract": "contracts/StakableNFT.sol:StakableNFT",
        "label": "mintedCount",
        "offset": 0,
        "slot": "14",
        "type": "t_mapping(t_address,t_uint256)"
      },
      {
        "astId": 8178,
        "contract": "contracts/StakableNFT.sol:StakableNFT",
        "label": "tokenRarity",
        "offset": 0,
        "slot": "15",
        "type": "t_mapping(t_uint256,t_enum(Rarity)8135)"
      },
      {
        "astId": 8182,
        "contract": "contracts/StakableNFT.sol:StakableNFT",
        "label": "rarityPool",
        "offset": 0,
        "slot": "16",
        "type": "t_array(t_enum(Rarity)8135)dyn_storage"
      },
      {
        "astId": 8184,
        "contract": "contracts/StakableNFT.sol:StakableNFT",
        "label": "revealOffset",
        "offset": 0,
        "slot": "17",
        "type": "t_uint256"
      },
      {
        "astId": 8186,
        "contract": "contracts/StakableNFT.sol:StakableNFT",
        "label": "isRevealed",
        "offset": 0,
        "slot": "18",
        "type": "t_bool"
      },
      {
        "astId": 8188,
        "contract": "contracts/StakableNFT.sol:StakableNFT",
        "label": "rarityPoolSet",
        "offset": 1,
        "slot": "18",
        "type": "t_bool"
      },
      {
        "astId": 8193,
        "contract": "contracts/StakableNFT.sol:StakableNFT",
        "label": "rewardMultiplier",
        "offset": 0,
        "slot": "19",
        "type": "t_mapping(t_enum(Rarity)8135,t_uint256)"
      },
      {
        "astId": 8197,
        "contract": "contracts/StakableNFT.sol:StakableNFT",
        "label": "_nonces",
        "offset": 0,
        "slot": "20",
        "type": "t_mapping(t_address,t_uint256)"
      }
    ],
    "types": {
      "t_address": {
        "encoding": "inplace",
        "label": "address",
        "numberOfBytes": "20"
      },
      "t_array(t_enum(Rarity)8135)dyn_storage": {
        "base": "t_enum(Rarity)8135",
        "encoding": "dynamic_array",
        "label": "enum StakableNFT.Rarity[]",
        "numberOfBytes": "32"
      },
      "t_bool": {
        "encoding": "inplace",
        "label": "bool",
        "numberOfBytes": "1"
      },
      "t_bytes32": {
        "encoding": "inplace",
        "label": "bytes32",
        "numberOfBytes": "32"
      },
      "t_enum(Rarity)8135": {
        "encoding": "inplace",
        "label": "enum StakableNFT.Rarity",
        "numberOfBytes": "1"
      },
      "t_mapping(t_address,t_bool)": {
        "encoding": "mapping",
        "key": "t_address",
        "label": "mapping(address => bool)",
        "numberOfBytes": "32",
        "value": "t_bool"
      },
      "t_mapping(t_address,t_mapping(t_address,t_bool))": {
        "encoding": "mapping",
        "key": "t_address",
        "label": "mapping(address => mapping(address => bool))",
        "numberOfBytes": "32",
        "value": "t_mapping(t_address,t_bool)"
      },
      "t_mapping(t_address,t_uint256)": {
        "encoding": "mapping",
        "key": "t_address",
        "label": "mapping(address => uint256)",
        "numberOfBytes": "32",
        "value": "t_uint256"
      },
      "t_mapping(t_bytes32,t_struct(RoleData)22_storage)": {
        "encoding": "mapping",
        "key": "t_bytes32",
        "label": "mapping(bytes32 => struct AccessControl.RoleData)",
        "numberOfBytes": "32",
        "value": "t_struct(RoleData)22_storage"
      },
      "t_mapping(t_enum(Rarity)8135,t_string_storage)": {
        "encoding": "mapping",
        "key": "t_enum(Rarity)8135",
        "label": "mapping(enum StakableNFT.Rarity => string)",
        "numberOfBytes": "32",
        "value": "t_string_storage"
      },
      "t_mapping(t_enum(Rarity)8135,t_uint256)": {
        "encoding": "mapping",
        "key": "t_enum(Rarity)8135",
        "label": "mapping(enum StakableNFT.Rarity => uint256)",
        "numberOfBytes": "32",
        "value": "t_uint256"
      },
      "t_mapping(t_uint256,t_address)": {
        "encoding": "mapping",
        "key": "t_uint256",
        "label": "mapping(uint256 => address)",
        "numberOfBytes": "32",
        "value": "t_address"
      },
      "t_mapping(t_uint256,t_enum(Rarity)8135)": {
        "encoding": "mapping",
        "key": "t_uint256",
        "label": "mapping(uint256 => enum StakableNFT.Rarity)",
        "numberOfBytes": "32",
        "value": "t_enum(Rarity)8135"
      },
      "t_string_storage": {
        "encoding": "bytes",
        "label": "string",
        "numberOfBytes": "32"
      },
      "t_struct(RoleData)22_storage": {
        "encoding": "inplace",
        "label": "struct AccessControl.RoleData",
        "members": [
          {
            "astId": 19,
            "contract": "contracts/StakableNFT.sol:StakableNFT",
            "label": "hasRole",
            "offset": 0,
            "slot": "0",
            "type": "t_mapping(t_address,t_bool)"
          },
          {
            "astId": 21,
            "contract": "contracts/StakableNFT.sol:StakableNFT",
            "label": "adminRole",
            "offset": 0,
            "slot": "1",
            "type": "t_bytes32"
          }
        ],
        "numberOfBytes": "64"
      },
      "t_uint256": {
        "encoding": "inplace",
        "label": "uint256",
        "numberOfBytes": "32"
      }
    }
  }
}